{"abi":[{"type":"function","name":"createManualVic","inputs":[{"name":"vault","type":"address","internalType":"address"}],"outputs":[{"name":"","type":"address","internalType":"address"}],"stateMutability":"nonpayable"},{"type":"function","name":"isManualVic","inputs":[{"name":"account","type":"address","internalType":"address"}],"outputs":[{"name":"","type":"bool","internalType":"bool"}],"stateMutability":"view"},{"type":"function","name":"manualVic","inputs":[{"name":"vault","type":"address","internalType":"address"}],"outputs":[{"name":"","type":"address","internalType":"address"}],"stateMutability":"view"},{"type":"event","name":"CreateManualVic","inputs":[{"name":"vic","type":"address","indexed":true,"internalType":"address"},{"name":"vault","type":"address","indexed":true,"internalType":"address"}],"anonymous":false}],"bytecode":{"object":"0x60808060405234601557610d0d908161001a8239f35b5f80fdfe6080806040526004361015610012575f80fd5b5f3560e01c908163169faeae146102275750806360656ad2146101ac5763fa6348cb1461003d575f80fd5b346101a85760207ffffffffffffffffffffffffffffffffffffffffffffffffffffffffffffffffc3601126101a85760043573ffffffffffffffffffffffffffffffffffffffff81168091036101a857604051610a719081810181811067ffffffffffffffff82111761017b57816020915f94610290833985815203019082f59081156101705773ffffffffffffffffffffffffffffffffffffffff60209216805f526001835260405f2060017fffffffffffffffffffffffffffffffffffffffffffffffffffffffffffffff00825416179055815f525f835260405f20817fffffffffffffffffffffffff000000000000000000000000000000000000000082541617905560405191817f1bf5da5cd785f2e2076a203e7895451a365d88ae8b0a1460cde8cd02504e6ba05f80a38152f35b6040513d5f823e3d90fd5b7f4e487b71000000000000000000000000000000000000000000000000000000005f52604160045260245ffd5b5f80fd5b346101a85760207ffffffffffffffffffffffffffffffffffffffffffffffffffffffffffffffffc3601126101a85760043573ffffffffffffffffffffffffffffffffffffffff81168091036101a8575f525f602052602073ffffffffffffffffffffffffffffffffffffffff60405f205416604051908152f35b346101a85760207ffffffffffffffffffffffffffffffffffffffffffffffffffffffffffffffffc3601126101a8576004359073ffffffffffffffffffffffffffffffffffffffff82168092036101a8576020915f526001825260ff60405f20541615158152f3fe60a03461008557601f610a7138819003918201601f19168301916001600160401b038311848410176100895780849260209460405283398101031261008557516001600160a01b0381168103610085576080526040516109d3908161009e823960805181818160b501528181610162015281816103b201528181610614015261076b0152f35b5f80fd5b634e487b7160e01b5f52604160045260245ffdfe6080806040526004361015610012575f80fd5b5f905f3560e01c9081633c266ad51461071f575080634381cd64146106e35780637d56a13c1461059e578063bc1ac13014610368578063d72fe4d614610118578063dd5cfd00146100dc5763fbfa77cf1461006b575f80fd5b346100d957807ffffffffffffffffffffffffffffffffffffffffffffffffffffffffffffffffc3601126100d957602060405173ffffffffffffffffffffffffffffffffffffffff7f0000000000000000000000000000000000000000000000000000000000000000168152f35b80fd5b50346100d957807ffffffffffffffffffffffffffffffffffffffffffffffffffffffffffffffffc3601126100d9576020600154604051908152f35b50346100d95760207ffffffffffffffffffffffffffffffffffffffffffffffffffffffffffffffffc3601126100d95760043573ffffffffffffffffffffffffffffffffffffffff7f0000000000000000000000000000000000000000000000000000000000000000166040517fe66f53b7000000000000000000000000000000000000000000000000000000008152602081600481855afa801561035d5773ffffffffffffffffffffffffffffffffffffffff91859161032e575b501633149081156102a6575b501561027e576001548111610256578082541161022e576040817f962cc0faef0562a562adb8c00cd891e89aae9e39d04e94d14ad61cb2729a7369926001558151903382526020820152a180f35b6004827fae8baa3f000000000000000000000000000000000000000000000000000000008152fd5b6004827f7506cf49000000000000000000000000000000000000000000000000000000008152fd5b6004827f82b42900000000000000000000000000000000000000000000000000000000008152fd5b60249150602090604051928380927fba03a75f0000000000000000000000000000000000000000000000000000000082523360048301525afa9081156103235783916102f4575b505f6101e0565b610316915060203d60201161031c575b61030e8183610914565b810190610982565b5f6102ed565b503d610304565b6040513d85823e3d90fd5b610350915060203d602011610356575b6103488183610914565b81019061099a565b5f6101d4565b503d61033e565b6040513d86823e3d90fd5b50346100d95760207ffffffffffffffffffffffffffffffffffffffffffffffffffffffffffffffffc3601126100d95760043573ffffffffffffffffffffffffffffffffffffffff7f0000000000000000000000000000000000000000000000000000000000000000166040517f4dedf20e000000000000000000000000000000000000000000000000000000008152336004820152602081602481855afa90811561035d57849161057f575b508015610516575b156104ee57825482116104c6578083913b156104b7578180916004604051809481937fa6afed950000000000000000000000000000000000000000000000000000000083525af180156104bb576104a2575b508190556040519081527fe26fbfcc6c04e0d017a6dabef931dc20421667a91f3b230d95485a075c660d7d60203392a280f35b816104ac91610914565b6104b757815f61046f565b5080fd5b6040513d84823e3d90fd5b6004837f7506cf49000000000000000000000000000000000000000000000000000000008152fd5b6004837f82b42900000000000000000000000000000000000000000000000000000000008152fd5b506040517fba03a75f000000000000000000000000000000000000000000000000000000008152336004820152602081602481855afa90811561035d578491610560575b5061041d565b610579915060203d60201161031c5761030e8183610914565b5f61055a565b610598915060203d60201161031c5761030e8183610914565b5f610415565b50346100d95760207ffffffffffffffffffffffffffffffffffffffffffffffffffffffffffffffffc3601126100d9576004356040517fe66f53b700000000000000000000000000000000000000000000000000000000815260208160048173ffffffffffffffffffffffffffffffffffffffff7f0000000000000000000000000000000000000000000000000000000000000000165afa80156103235773ffffffffffffffffffffffffffffffffffffffff9184916106c4575b5016330361027e57600154811061069c576020817fe3e78e070f6b9b46fccae4043ac9be634572ec384171d8d3c93d9589eac1e52392600155604051908152a180f35b6004827f512ea380000000000000000000000000000000000000000000000000000000008152fd5b6106dd915060203d602011610356576103488183610914565b5f610659565b50346100d95760407ffffffffffffffffffffffffffffffffffffffffffffffffffffffffffffffffc3601126100d95760209054604051908152f35b9050346108795760207ffffffffffffffffffffffffffffffffffffffffffffffffffffffffffffffffc360112610879576004359073ffffffffffffffffffffffffffffffffffffffff7f000000000000000000000000000000000000000000000000000000000000000016907f4dedf20e000000000000000000000000000000000000000000000000000000008152336004820152602081602481855afa90811561086e575f916108f5575b50156108cd5760015482116108a5575f54821061087d57803b15610879575f80916004604051809481937fa6afed950000000000000000000000000000000000000000000000000000000083525af1801561086e57610859575b508082556040519081527f1ffdc07a6359d74832eb86c036cb6fa88e0794f1c4df11f20f92d8681699ecbe60203392a280f35b6108669192505f90610914565b5f905f610826565b6040513d5f823e3d90fd5b5f80fd5b7f512ea380000000000000000000000000000000000000000000000000000000005f5260045ffd5b7fae8baa3f000000000000000000000000000000000000000000000000000000005f5260045ffd5b7f82b42900000000000000000000000000000000000000000000000000000000005f5260045ffd5b61090e915060203d60201161031c5761030e8183610914565b5f6107cc565b90601f7fffffffffffffffffffffffffffffffffffffffffffffffffffffffffffffffe0910116810190811067ffffffffffffffff82111761095557604052565b7f4e487b71000000000000000000000000000000000000000000000000000000005f52604160045260245ffd5b90816020910312610879575180151581036108795790565b90816020910312610879575173ffffffffffffffffffffffffffffffffffffffff81168103610879579056fea164736f6c634300081c000aa164736f6c634300081c000a","linkReferences":{}},"methodIdentifiers":{"createManualVic(address)":"fa6348cb","isManualVic(address)":"169faeae","manualVic(address)":"60656ad2"},"id":52}