{"abi":[{"type":"function","name":"createMetaMorphoAdapter","inputs":[{"name":"parentVault","type":"address","internalType":"address"},{"name":"metaMorpho","type":"address","internalType":"address"}],"outputs":[{"name":"","type":"address","internalType":"address"}],"stateMutability":"nonpayable"},{"type":"function","name":"isMetaMorphoAdapter","inputs":[{"name":"account","type":"address","internalType":"address"}],"outputs":[{"name":"","type":"bool","internalType":"bool"}],"stateMutability":"view"},{"type":"function","name":"metaMorphoAdapter","inputs":[{"name":"parentVault","type":"address","internalType":"address"},{"name":"metaMorpho","type":"address","internalType":"address"}],"outputs":[{"name":"","type":"address","internalType":"address"}],"stateMutability":"view"},{"type":"event","name":"CreateMetaMorphoAdapter","inputs":[{"name":"parentVault","type":"address","indexed":true,"internalType":"address"},{"name":"vault","type":"address","indexed":true,"internalType":"address"},{"name":"metaMorphoAdapter","type":"address","indexed":true,"internalType":"address"}],"anonymous":false}],"bytecode":{"object":"0x60808060405234601557611505908161001a8239f35b5f80fdfe60806040526004361015610011575f80fd5b5f3560e01c80634f3fd5d81461022b578063878f8d94146101c35763fc46227a1461003a575f80fd5b346101bf5760407ffffffffffffffffffffffffffffffffffffffffffffffffffffffffffffffffc3601126101bf576100716102cc565b6100796102ef565b6040516111e6908181019381851067ffffffffffffffff861117610192578173ffffffffffffffffffffffffffffffffffffffff806040935f9661031385391695868852169586602082015203019082f59182156101875773ffffffffffffffffffffffffffffffffffffffff602093168091835f525f855260405f20815f52855260405f20827fffffffffffffffffffffffff0000000000000000000000000000000000000000825416179055815f526001855260405f2060017fffffffffffffffffffffffffffffffffffffffffffffffffffffffffffffff00825416179055604051937f134c8dfc1f325c675b3d812e41fd1a2237ad93965c303f57b15a8862d7f604f25f80a48152f35b6040513d5f823e3d90fd5b7f4e487b71000000000000000000000000000000000000000000000000000000005f52604160045260245ffd5b5f80fd5b346101bf5760207ffffffffffffffffffffffffffffffffffffffffffffffffffffffffffffffffc3601126101bf5773ffffffffffffffffffffffffffffffffffffffff61020f6102cc565b165f526001602052602060ff60405f2054166040519015158152f35b346101bf5760407ffffffffffffffffffffffffffffffffffffffffffffffffffffffffffffffffc3601126101bf576102626102cc565b73ffffffffffffffffffffffffffffffffffffffff61027f6102ef565b91165f525f60205273ffffffffffffffffffffffffffffffffffffffff60405f2091165f52602052602073ffffffffffffffffffffffffffffffffffffffff60405f205416604051908152f35b6004359073ffffffffffffffffffffffffffffffffffffffff821682036101bf57565b6024359073ffffffffffffffffffffffffffffffffffffffff821682036101bf5756fe60c08060405234610130576040816111e6803803809161001f828561018e565b8339810103126101305761003e6020610037836101c5565b92016101c5565b608082905260a08190526040516338d52e0f60e01b81526001600160a01b0383169290602081600481875afa90811561013c575f91610147575b50926100886020926004956101d9565b6040516338d52e0f60e01b815293849182905afa801561013c575f906100fd575b6100b392506101d9565b604051610f1b90816102cb823960805181818161043501528181610893015281816109bc0152610caf015260a05181818160fc015281816103ab0152818161047201526109f90152f35b506020823d602011610134575b816101176020938361018e565b810103126101305761012b6100b3926101c5565b6100a9565b5f80fd5b3d915061010a565b6040513d5f823e3d90fd5b9390506020843d602011610186575b816101636020938361018e565b810103126101305761008860209261017c6004966101c5565b9295509250610078565b3d9150610156565b601f909101601f19168101906001600160401b038211908210176101b157604052565b634e487b7160e01b5f52604160045260245ffd5b51906001600160a01b038216820361013057565b90813b156102bb575f91829182604051602081019263095ea7b360e01b845260018060a01b03166024820152811960448201526044815261021b60648261018e565b51925af13d156102b3573d906001600160401b0382116101b1576040519161024d601f8201601f19166020018461018e565b82523d5f602084013e5b156102a4578051908115918215610281575b50501561027257565b631f55ddd960e21b5f5260045ffd5b819250906020918101031261013057602001518015158103610130575f80610269565b637cceae2560e01b5f5260045ffd5b606090610257565b633c11a9c560e21b5f5260045ffdfe6080806040526004361015610012575f80fd5b5f3560e01c9081630fe3653614610c675750806323a6aad7146109915780632b30997b14610800578063388af5b5146107b05780639d1bdc001461040a578063a72158b7146103cf578063b6042b34146103615763bc25cf7714610074575f80fd5b346102765760207ffffffffffffffffffffffffffffffffffffffffffffffffffffffffffffffffc3601126102765760043573ffffffffffffffffffffffffffffffffffffffff8116908181036102765773ffffffffffffffffffffffffffffffffffffffff5f5416908133036103395773ffffffffffffffffffffffffffffffffffffffff7f000000000000000000000000000000000000000000000000000000000000000016831461031157604051917f70a08231000000000000000000000000000000000000000000000000000000008352306004840152602083602481875afa928315610306575f936102d2575b50813b156102aa575f9182918260405160208101927fa9059cbb0000000000000000000000000000000000000000000000000000000084526024820152866044820152604481526101b8606482610cd3565b51925af13d156102a2573d906101cd82610d41565b916101db6040519384610cd3565b82523d5f602084013e5b1561027a578051908115918215610253575b50501561022b5760207f5e99aaf6d3588fb2497fde044168e8c046704a3223559cfe107f8f94b42cefdd91604051908152a2005b7f2f0470fc000000000000000000000000000000000000000000000000000000005f5260045ffd5b819250906020918101031261027657602001518015158103610276575f806101f7565b5f80fd5b7face2a47e000000000000000000000000000000000000000000000000000000005f5260045ffd5b6060906101e5565b7ff046a714000000000000000000000000000000000000000000000000000000005f5260045ffd5b9092506020813d6020116102fe575b816102ee60209383610cd3565b810103126102765751915f610166565b3d91506102e1565b6040513d5f823e3d90fd5b7f4a202356000000000000000000000000000000000000000000000000000000005f5260045ffd5b7fea8e4eb5000000000000000000000000000000000000000000000000000000005f5260045ffd5b34610276575f7ffffffffffffffffffffffffffffffffffffffffffffffffffffffffffffffffc36011261027657602060405173ffffffffffffffffffffffffffffffffffffffff7f0000000000000000000000000000000000000000000000000000000000000000168152f35b34610276575f7ffffffffffffffffffffffffffffffffffffffffffffffffffffffffffffffffc360112610276576020600154604051908152f35b346102765761041836610d7b565b90516107885773ffffffffffffffffffffffffffffffffffffffff7f00000000000000000000000000000000000000000000000000000000000000001633036103395773ffffffffffffffffffffffffffffffffffffffff7f000000000000000000000000000000000000000000000000000000000000000016906040517f6e553f650000000000000000000000000000000000000000000000000000000081525f60048201523060248201526020816044815f875af1801561030657610759575b5060015491604051917f70a08231000000000000000000000000000000000000000000000000000000008352306004840152602083602481855afa928315610306575f93610725575b50604051927f4cdad5060000000000000000000000000000000000000000000000000000000084526004840152602083602481855afa928315610306575f936106f1575b50604051907f6e553f6500000000000000000000000000000000000000000000000000000000825260048201523060248201526020816044815f865af18015610306576106c2575b506040517f70a08231000000000000000000000000000000000000000000000000000000008152306004820152602081602481855afa8015610306575f9061068f575b602091506024604051809481937f4cdad50600000000000000000000000000000000000000000000000000000000835260048301525afa908115610306575f9161065d575b50600155610659610646610e49565b6040519383859482039111029083610e05565b0390f35b90506020813d602011610687575b8161067860209383610cd3565b81010312610276575183610637565b3d915061066b565b506020813d6020116106ba575b816106a960209383610cd3565b8101031261027657602090516105f2565b3d915061069c565b6020813d6020116106e9575b816106db60209383610cd3565b8101031261027657516105af565b3d91506106ce565b9092506020813d60201161071d575b8161070d60209383610cd3565b8101031261027657519184610567565b3d9150610700565b9092506020813d602011610751575b8161074160209383610cd3565b8101031261027657519184610523565b3d9150610734565b6020813d602011610780575b8161077260209383610cd3565b8101031261027657516104da565b3d9150610765565b7f5cb045db000000000000000000000000000000000000000000000000000000005f5260045ffd5b34610276575f7ffffffffffffffffffffffffffffffffffffffffffffffffffffffffffffffffc36011261027657602073ffffffffffffffffffffffffffffffffffffffff5f5416604051908152f35b346102765760207ffffffffffffffffffffffffffffffffffffffffffffffffffffffffffffffffc3601126102765760043573ffffffffffffffffffffffffffffffffffffffff8116809103610276576040517f8da5cb5b00000000000000000000000000000000000000000000000000000000815260208160048173ffffffffffffffffffffffffffffffffffffffff7f0000000000000000000000000000000000000000000000000000000000000000165afa8015610306575f9061092e575b73ffffffffffffffffffffffffffffffffffffffff915016330361033957807fffffffffffffffffffffffff00000000000000000000000000000000000000005f5416175f557f2e7908865670e21b9779422cadf5f1cba271a62bb95c71eaaf615c0a1c48ebee5f80a2005b506020813d602011610989575b8161094860209383610cd3565b81010312610276575173ffffffffffffffffffffffffffffffffffffffff811681036102765773ffffffffffffffffffffffffffffffffffffffff906108c2565b3d915061093b565b346102765761099f36610d7b565b90516107885773ffffffffffffffffffffffffffffffffffffffff7f00000000000000000000000000000000000000000000000000000000000000001633036103395773ffffffffffffffffffffffffffffffffffffffff7f000000000000000000000000000000000000000000000000000000000000000016906040517f6e553f650000000000000000000000000000000000000000000000000000000081525f60048201523060248201526020816044815f875af1801561030657610c38575b5060015491604051917f70a08231000000000000000000000000000000000000000000000000000000008352306004840152602083602481855afa928315610306575f93610c04575b50604051927f4cdad5060000000000000000000000000000000000000000000000000000000084526004840152602083602481855afa928315610306575f93610bd0575b50604051907fb460af9400000000000000000000000000000000000000000000000000000000825260048201523060248201523060448201526020816064815f865af18015610306576106c257506040517f70a08231000000000000000000000000000000000000000000000000000000008152306004820152602081602481855afa8015610306575f9061068f57602091506024604051809481937f4cdad50600000000000000000000000000000000000000000000000000000000835260048301525afa908115610306575f9161065d5750600155610659610646610e49565b9092506020813d602011610bfc575b81610bec60209383610cd3565b8101031261027657519184610aee565b3d9150610bdf565b9092506020813d602011610c30575b81610c2060209383610cd3565b8101031261027657519184610aaa565b3d9150610c13565b6020813d602011610c5f575b81610c5160209383610cd3565b810103126102765751610a61565b3d9150610c44565b34610276575f7ffffffffffffffffffffffffffffffffffffffffffffffffffffffffffffffffc3601126102765760209073ffffffffffffffffffffffffffffffffffffffff7f0000000000000000000000000000000000000000000000000000000000000000168152f35b90601f7fffffffffffffffffffffffffffffffffffffffffffffffffffffffffffffffe0910116810190811067ffffffffffffffff821117610d1457604052565b7f4e487b71000000000000000000000000000000000000000000000000000000005f52604160045260245ffd5b67ffffffffffffffff8111610d1457601f017fffffffffffffffffffffffffffffffffffffffffffffffffffffffffffffffe01660200190565b60407ffffffffffffffffffffffffffffffffffffffffffffffffffffffffffffffffc8201126102765760043567ffffffffffffffff8111610276578160238201121561027657806004013590610dd182610d41565b92610ddf6040519485610cd3565b8284526024838301011161027657815f9260246020930183860137830101529060243590565b92919060408401906040855280518092526020606086019101915f5b818110610e3357505060209150930152565b8351835260209384019390920191600101610e21565b6040805190610e588183610cd3565b6001825260208201907fffffffffffffffffffffffffffffffffffffffffffffffffffffffffffffffe0810136833780516020810191808352600760608301527f61646170746572000000000000000000000000000000000000000000000000006080830152309082015260808152610ed260a082610cd3565b51902090825115610ee1575290565b7f4e487b71000000000000000000000000000000000000000000000000000000005f52603260045260245ffdfea164736f6c634300081c000aa164736f6c634300081c000a","linkReferences":{}},"methodIdentifiers":{"createMetaMorphoAdapter(address,address)":"fc46227a","isMetaMorphoAdapter(address)":"878f8d94","metaMorphoAdapter(address,address)":"4f3fd5d8"},"id":29}