{"abi":[{"type":"constructor","inputs":[{"name":"_owner","type":"address","internalType":"address"},{"name":"_asset","type":"address","internalType":"address"},{"name":"_name","type":"string","internalType":"string"},{"name":"_symbol","type":"string","internalType":"string"}],"stateMutability":"nonpayable"},{"type":"function","name":"DOMAIN_SEPARATOR","inputs":[],"outputs":[{"name":"","type":"bytes32","internalType":"bytes32"}],"stateMutability":"view"},{"type":"function","name":"abdicateSubmit","inputs":[{"name":"selector","type":"bytes4","internalType":"bytes4"}],"outputs":[],"stateMutability":"nonpayable"},{"type":"function","name":"absoluteCap","inputs":[{"name":"id","type":"bytes32","internalType":"bytes32"}],"outputs":[{"name":"","type":"uint256","internalType":"uint256"}],"stateMutability":"view"},{"type":"function","name":"accrueInterest","inputs":[],"outputs":[],"stateMutability":"nonpayable"},{"type":"function","name":"accrueInterestView","inputs":[],"outputs":[{"name":"","type":"uint256","internalType":"uint256"},{"name":"","type":"uint256","internalType":"uint256"},{"name":"","type":"uint256","internalType":"uint256"}],"stateMutability":"view"},{"type":"function","name":"allocate","inputs":[{"name":"adapter","type":"address","internalType":"address"},{"name":"data","type":"bytes","internalType":"bytes"},{"name":"assets","type":"uint256","internalType":"uint256"}],"outputs":[],"stateMutability":"nonpayable"},{"type":"function","name":"allocation","inputs":[{"name":"id","type":"bytes32","internalType":"bytes32"}],"outputs":[{"name":"","type":"uint256","internalType":"uint256"}],"stateMutability":"view"},{"type":"function","name":"allowance","inputs":[{"name":"owner","type":"address","internalType":"address"},{"name":"spender","type":"address","internalType":"address"}],"outputs":[{"name":"","type":"uint256","internalType":"uint256"}],"stateMutability":"view"},{"type":"function","name":"approve","inputs":[{"name":"spender","type":"address","internalType":"address"},{"name":"shares","type":"uint256","internalType":"uint256"}],"outputs":[{"name":"","type":"bool","internalType":"bool"}],"stateMutability":"nonpayable"},{"type":"function","name":"asset","inputs":[],"outputs":[{"name":"","type":"address","internalType":"address"}],"stateMutability":"view"},{"type":"function","name":"balanceOf","inputs":[{"name":"account","type":"address","internalType":"address"}],"outputs":[{"name":"","type":"uint256","internalType":"uint256"}],"stateMutability":"view"},{"type":"function","name":"canReceive","inputs":[{"name":"account","type":"address","internalType":"address"}],"outputs":[{"name":"","type":"bool","internalType":"bool"}],"stateMutability":"view"},{"type":"function","name":"canReceiveUnderlyingAssets","inputs":[{"name":"account","type":"address","internalType":"address"}],"outputs":[{"name":"","type":"bool","internalType":"bool"}],"stateMutability":"view"},{"type":"function","name":"canSend","inputs":[{"name":"account","type":"address","internalType":"address"}],"outputs":[{"name":"","type":"bool","internalType":"bool"}],"stateMutability":"view"},{"type":"function","name":"canSendUnderlyingAssets","inputs":[{"name":"account","type":"address","internalType":"address"}],"outputs":[{"name":"","type":"bool","internalType":"bool"}],"stateMutability":"view"},{"type":"function","name":"curator","inputs":[],"outputs":[{"name":"","type":"address","internalType":"address"}],"stateMutability":"view"},{"type":"function","name":"deallocate","inputs":[{"name":"adapter","type":"address","internalType":"address"},{"name":"data","type":"bytes","internalType":"bytes"},{"name":"assets","type":"uint256","internalType":"uint256"}],"outputs":[],"stateMutability":"nonpayable"},{"type":"function","name":"decreaseAbsoluteCap","inputs":[{"name":"idData","type":"bytes","internalType":"bytes"},{"name":"newAbsoluteCap","type":"uint256","internalType":"uint256"}],"outputs":[],"stateMutability":"nonpayable"},{"type":"function","name":"decreaseRelativeCap","inputs":[{"name":"idData","type":"bytes","internalType":"bytes"},{"name":"newRelativeCap","type":"uint256","internalType":"uint256"}],"outputs":[],"stateMutability":"nonpayable"},{"type":"function","name":"decreaseTimelock","inputs":[{"name":"selector","type":"bytes4","internalType":"bytes4"},{"name":"newDuration","type":"uint256","internalType":"uint256"}],"outputs":[],"stateMutability":"nonpayable"},{"type":"function","name":"deposit","inputs":[{"name":"assets","type":"uint256","internalType":"uint256"},{"name":"onBehalf","type":"address","internalType":"address"}],"outputs":[{"name":"","type":"uint256","internalType":"uint256"}],"stateMutability":"nonpayable"},{"type":"function","name":"enterBlocked","inputs":[],"outputs":[{"name":"","type":"bool","internalType":"bool"}],"stateMutability":"view"},{"type":"function","name":"enterGate","inputs":[],"outputs":[{"name":"","type":"address","internalType":"address"}],"stateMutability":"view"},{"type":"function","name":"executableAt","inputs":[{"name":"data","type":"bytes","internalType":"bytes"}],"outputs":[{"name":"","type":"uint256","internalType":"uint256"}],"stateMutability":"view"},{"type":"function","name":"exitGate","inputs":[],"outputs":[{"name":"","type":"address","internalType":"address"}],"stateMutability":"view"},{"type":"function","name":"forceDeallocate","inputs":[{"name":"adapter","type":"address","internalType":"address"},{"name":"data","type":"bytes","internalType":"bytes"},{"name":"assets","type":"uint256","internalType":"uint256"},{"name":"onBehalf","type":"address","internalType":"address"}],"outputs":[{"name":"","type":"uint256","internalType":"uint256"}],"stateMutability":"nonpayable"},{"type":"function","name":"forceDeallocatePenalty","inputs":[{"name":"adapter","type":"address","internalType":"address"}],"outputs":[{"name":"","type":"uint256","internalType":"uint256"}],"stateMutability":"view"},{"type":"function","name":"increaseAbsoluteCap","inputs":[{"name":"idData","type":"bytes","internalType":"bytes"},{"name":"newAbsoluteCap","type":"uint256","internalType":"uint256"}],"outputs":[],"stateMutability":"nonpayable"},{"type":"function","name":"increaseRelativeCap","inputs":[{"name":"idData","type":"bytes","internalType":"bytes"},{"name":"newRelativeCap","type":"uint256","internalType":"uint256"}],"outputs":[],"stateMutability":"nonpayable"},{"type":"function","name":"increaseTimelock","inputs":[{"name":"selector","type":"bytes4","internalType":"bytes4"},{"name":"newDuration","type":"uint256","internalType":"uint256"}],"outputs":[],"stateMutability":"nonpayable"},{"type":"function","name":"isAdapter","inputs":[{"name":"account","type":"address","internalType":"address"}],"outputs":[{"name":"","type":"bool","internalType":"bool"}],"stateMutability":"view"},{"type":"function","name":"isAllocator","inputs":[{"name":"account","type":"address","internalType":"address"}],"outputs":[{"name":"","type":"bool","internalType":"bool"}],"stateMutability":"view"},{"type":"function","name":"isSentinel","inputs":[{"name":"account","type":"address","internalType":"address"}],"outputs":[{"name":"","type":"bool","internalType":"bool"}],"stateMutability":"view"},{"type":"function","name":"lastUpdate","inputs":[],"outputs":[{"name":"","type":"uint64","internalType":"uint64"}],"stateMutability":"view"},{"type":"function","name":"liquidityAdapter","inputs":[],"outputs":[{"name":"","type":"address","internalType":"address"}],"stateMutability":"view"},{"type":"function","name":"liquidityData","inputs":[],"outputs":[{"name":"","type":"bytes","internalType":"bytes"}],"stateMutability":"view"},{"type":"function","name":"managementFee","inputs":[],"outputs":[{"name":"","type":"uint96","internalType":"uint96"}],"stateMutability":"view"},{"type":"function","name":"managementFeeRecipient","inputs":[],"outputs":[{"name":"","type":"address","internalType":"address"}],"stateMutability":"view"},{"type":"function","name":"mint","inputs":[{"name":"shares","type":"uint256","internalType":"uint256"},{"name":"onBehalf","type":"address","internalType":"address"}],"outputs":[{"name":"","type":"uint256","internalType":"uint256"}],"stateMutability":"nonpayable"},{"type":"function","name":"multicall","inputs":[{"name":"data","type":"bytes[]","internalType":"bytes[]"}],"outputs":[],"stateMutability":"nonpayable"},{"type":"function","name":"name","inputs":[],"outputs":[{"name":"","type":"string","internalType":"string"}],"stateMutability":"view"},{"type":"function","name":"nonces","inputs":[{"name":"account","type":"address","internalType":"address"}],"outputs":[{"name":"","type":"uint256","internalType":"uint256"}],"stateMutability":"view"},{"type":"function","name":"owner","inputs":[],"outputs":[{"name":"","type":"address","internalType":"address"}],"stateMutability":"view"},{"type":"function","name":"performanceFee","inputs":[],"outputs":[{"name":"","type":"uint96","internalType":"uint96"}],"stateMutability":"view"},{"type":"function","name":"performanceFeeRecipient","inputs":[],"outputs":[{"name":"","type":"address","internalType":"address"}],"stateMutability":"view"},{"type":"function","name":"permit","inputs":[{"name":"_owner","type":"address","internalType":"address"},{"name":"spender","type":"address","internalType":"address"},{"name":"shares","type":"uint256","internalType":"uint256"},{"name":"deadline","type":"uint256","internalType":"uint256"},{"name":"v","type":"uint8","internalType":"uint8"},{"name":"r","type":"bytes32","internalType":"bytes32"},{"name":"s","type":"bytes32","internalType":"bytes32"}],"outputs":[],"stateMutability":"nonpayable"},{"type":"function","name":"previewDeposit","inputs":[{"name":"assets","type":"uint256","internalType":"uint256"}],"outputs":[{"name":"","type":"uint256","internalType":"uint256"}],"stateMutability":"view"},{"type":"function","name":"previewMint","inputs":[{"name":"shares","type":"uint256","internalType":"uint256"}],"outputs":[{"name":"","type":"uint256","internalType":"uint256"}],"stateMutability":"view"},{"type":"function","name":"previewRedeem","inputs":[{"name":"shares","type":"uint256","internalType":"uint256"}],"outputs":[{"name":"","type":"uint256","internalType":"uint256"}],"stateMutability":"view"},{"type":"function","name":"previewWithdraw","inputs":[{"name":"assets","type":"uint256","internalType":"uint256"}],"outputs":[{"name":"","type":"uint256","internalType":"uint256"}],"stateMutability":"view"},{"type":"function","name":"redeem","inputs":[{"name":"shares","type":"uint256","internalType":"uint256"},{"name":"receiver","type":"address","internalType":"address"},{"name":"onBehalf","type":"address","internalType":"address"}],"outputs":[{"name":"","type":"uint256","internalType":"uint256"}],"stateMutability":"nonpayable"},{"type":"function","name":"relativeCap","inputs":[{"name":"id","type":"bytes32","internalType":"bytes32"}],"outputs":[{"name":"","type":"uint256","internalType":"uint256"}],"stateMutability":"view"},{"type":"function","name":"revoke","inputs":[{"name":"data","type":"bytes","internalType":"bytes"}],"outputs":[],"stateMutability":"nonpayable"},{"type":"function","name":"setCurator","inputs":[{"name":"newCurator","type":"address","internalType":"address"}],"outputs":[],"stateMutability":"nonpayable"},{"type":"function","name":"setEnterGate","inputs":[{"name":"newEnterGate","type":"address","internalType":"address"}],"outputs":[],"stateMutability":"nonpayable"},{"type":"function","name":"setExitGate","inputs":[{"name":"newExitGate","type":"address","internalType":"address"}],"outputs":[],"stateMutability":"nonpayable"},{"type":"function","name":"setForceDeallocatePenalty","inputs":[{"name":"adapter","type":"address","internalType":"address"},{"name":"newForceDeallocatePenalty","type":"uint256","internalType":"uint256"}],"outputs":[],"stateMutability":"nonpayable"},{"type":"function","name":"setIsAdapter","inputs":[{"name":"account","type":"address","internalType":"address"},{"name":"newIsAdapter","type":"bool","internalType":"bool"}],"outputs":[],"stateMutability":"nonpayable"},{"type":"function","name":"setIsAllocator","inputs":[{"name":"account","type":"address","internalType":"address"},{"name":"newIsAllocator","type":"bool","internalType":"bool"}],"outputs":[],"stateMutability":"nonpayable"},{"type":"function","name":"setIsSentinel","inputs":[{"name":"account","type":"address","internalType":"address"},{"name":"newIsSentinel","type":"bool","internalType":"bool"}],"outputs":[],"stateMutability":"nonpayable"},{"type":"function","name":"setLiquidityAdapter","inputs":[{"name":"newLiquidityAdapter","type":"address","internalType":"address"}],"outputs":[],"stateMutability":"nonpayable"},{"type":"function","name":"setLiquidityData","inputs":[{"name":"newLiquidityData","type":"bytes","internalType":"bytes"}],"outputs":[],"stateMutability":"nonpayable"},{"type":"function","name":"setManagementFee","inputs":[{"name":"newManagementFee","type":"uint256","internalType":"uint256"}],"outputs":[],"stateMutability":"nonpayable"},{"type":"function","name":"setManagementFeeRecipient","inputs":[{"name":"newManagementFeeRecipient","type":"address","internalType":"address"}],"outputs":[],"stateMutability":"nonpayable"},{"type":"function","name":"setName","inputs":[{"name":"_name","type":"string","internalType":"string"}],"outputs":[],"stateMutability":"nonpayable"},{"type":"function","name":"setOwner","inputs":[{"name":"newOwner","type":"address","internalType":"address"}],"outputs":[],"stateMutability":"nonpayable"},{"type":"function","name":"setPerformanceFee","inputs":[{"name":"newPerformanceFee","type":"uint256","internalType":"uint256"}],"outputs":[],"stateMutability":"nonpayable"},{"type":"function","name":"setPerformanceFeeRecipient","inputs":[{"name":"newPerformanceFeeRecipient","type":"address","internalType":"address"}],"outputs":[],"stateMutability":"nonpayable"},{"type":"function","name":"setSymbol","inputs":[{"name":"_symbol","type":"string","internalType":"string"}],"outputs":[],"stateMutability":"nonpayable"},{"type":"function","name":"setVic","inputs":[{"name":"newVic","type":"address","internalType":"address"}],"outputs":[],"stateMutability":"nonpayable"},{"type":"function","name":"submit","inputs":[{"name":"data","type":"bytes","internalType":"bytes"}],"outputs":[],"stateMutability":"nonpayable"},{"type":"function","name":"symbol","inputs":[],"outputs":[{"name":"","type":"string","internalType":"string"}],"stateMutability":"view"},{"type":"function","name":"timelock","inputs":[{"name":"selector","type":"bytes4","internalType":"bytes4"}],"outputs":[{"name":"","type":"uint256","internalType":"uint256"}],"stateMutability":"view"},{"type":"function","name":"totalAssets","inputs":[],"outputs":[{"name":"","type":"uint256","internalType":"uint256"}],"stateMutability":"view"},{"type":"function","name":"totalSupply","inputs":[],"outputs":[{"name":"","type":"uint256","internalType":"uint256"}],"stateMutability":"view"},{"type":"function","name":"transfer","inputs":[{"name":"to","type":"address","internalType":"address"},{"name":"shares","type":"uint256","internalType":"uint256"}],"outputs":[{"name":"","type":"bool","internalType":"bool"}],"stateMutability":"nonpayable"},{"type":"function","name":"transferFrom","inputs":[{"name":"from","type":"address","internalType":"address"},{"name":"to","type":"address","internalType":"address"},{"name":"shares","type":"uint256","internalType":"uint256"}],"outputs":[{"name":"","type":"bool","internalType":"bool"}],"stateMutability":"nonpayable"},{"type":"function","name":"vic","inputs":[],"outputs":[{"name":"","type":"address","internalType":"address"}],"stateMutability":"view"},{"type":"function","name":"withdraw","inputs":[{"name":"assets","type":"uint256","internalType":"uint256"},{"name":"receiver","type":"address","internalType":"address"},{"name":"onBehalf","type":"address","internalType":"address"}],"outputs":[{"name":"","type":"uint256","internalType":"uint256"}],"stateMutability":"nonpayable"},{"type":"event","name":"AbdicateSubmit","inputs":[{"name":"selector","type":"bytes4","indexed":true,"internalType":"bytes4"}],"anonymous":false},{"type":"event","name":"AccrueInterest","inputs":[{"name":"previousTotalAssets","type":"uint256","indexed":false,"internalType":"uint256"},{"name":"newTotalAssets","type":"uint256","indexed":false,"internalType":"uint256"},{"name":"performanceFeeShares","type":"uint256","indexed":false,"internalType":"uint256"},{"name":"managementFeeShares","type":"uint256","indexed":false,"internalType":"uint256"}],"anonymous":false},{"type":"event","name":"Allocate","inputs":[{"name":"sender","type":"address","indexed":true,"internalType":"address"},{"name":"adapter","type":"address","indexed":true,"internalType":"address"},{"name":"assets","type":"uint256","indexed":false,"internalType":"uint256"},{"name":"ids","type":"bytes32[]","indexed":false,"internalType":"bytes32[]"},{"name":"loss","type":"uint256","indexed":false,"internalType":"uint256"}],"anonymous":false},{"type":"event","name":"AllowanceUpdatedByTransferFrom","inputs":[{"name":"owner","type":"address","indexed":true,"internalType":"address"},{"name":"spender","type":"address","indexed":true,"internalType":"address"},{"name":"shares","type":"uint256","indexed":false,"internalType":"uint256"}],"anonymous":false},{"type":"event","name":"Approval","inputs":[{"name":"owner","type":"address","indexed":true,"internalType":"address"},{"name":"spender","type":"address","indexed":true,"internalType":"address"},{"name":"shares","type":"uint256","indexed":false,"internalType":"uint256"}],"anonymous":false},{"type":"event","name":"Constructor","inputs":[{"name":"owner","type":"address","indexed":true,"internalType":"address"},{"name":"asset","type":"address","indexed":true,"internalType":"address"}],"anonymous":false},{"type":"event","name":"Deallocate","inputs":[{"name":"sender","type":"address","indexed":true,"internalType":"address"},{"name":"adapter","type":"address","indexed":true,"internalType":"address"},{"name":"assets","type":"uint256","indexed":false,"internalType":"uint256"},{"name":"ids","type":"bytes32[]","indexed":false,"internalType":"bytes32[]"},{"name":"loss","type":"uint256","indexed":false,"internalType":"uint256"}],"anonymous":false},{"type":"event","name":"DecreaseAbsoluteCap","inputs":[{"name":"id","type":"bytes32","indexed":true,"internalType":"bytes32"},{"name":"idData","type":"bytes","indexed":false,"internalType":"bytes"},{"name":"newAbsoluteCap","type":"uint256","indexed":false,"internalType":"uint256"}],"anonymous":false},{"type":"event","name":"DecreaseRelativeCap","inputs":[{"name":"id","type":"bytes32","indexed":true,"internalType":"bytes32"},{"name":"idData","type":"bytes","indexed":false,"internalType":"bytes"},{"name":"newRelativeCap","type":"uint256","indexed":false,"internalType":"uint256"}],"anonymous":false},{"type":"event","name":"DecreaseTimelock","inputs":[{"name":"selector","type":"bytes4","indexed":true,"internalType":"bytes4"},{"name":"newDuration","type":"uint256","indexed":false,"internalType":"uint256"}],"anonymous":false},{"type":"event","name":"Deposit","inputs":[{"name":"sender","type":"address","indexed":true,"internalType":"address"},{"name":"onBehalf","type":"address","indexed":true,"internalType":"address"},{"name":"assets","type":"uint256","indexed":false,"internalType":"uint256"},{"name":"shares","type":"uint256","indexed":false,"internalType":"uint256"}],"anonymous":false},{"type":"event","name":"ForceDeallocate","inputs":[{"name":"sender","type":"address","indexed":true,"internalType":"address"},{"name":"adapter","type":"address","indexed":false,"internalType":"address"},{"name":"data","type":"bytes","indexed":false,"internalType":"bytes"},{"name":"assets","type":"uint256","indexed":false,"internalType":"uint256"},{"name":"onBehalf","type":"address","indexed":true,"internalType":"address"}],"anonymous":false},{"type":"event","name":"IncreaseAbsoluteCap","inputs":[{"name":"id","type":"bytes32","indexed":true,"internalType":"bytes32"},{"name":"idData","type":"bytes","indexed":false,"internalType":"bytes"},{"name":"newAbsoluteCap","type":"uint256","indexed":false,"internalType":"uint256"}],"anonymous":false},{"type":"event","name":"IncreaseRelativeCap","inputs":[{"name":"id","type":"bytes32","indexed":true,"internalType":"bytes32"},{"name":"idData","type":"bytes","indexed":false,"internalType":"bytes"},{"name":"newRelativeCap","type":"uint256","indexed":false,"internalType":"uint256"}],"anonymous":false},{"type":"event","name":"IncreaseTimelock","inputs":[{"name":"selector","type":"bytes4","indexed":true,"internalType":"bytes4"},{"name":"newDuration","type":"uint256","indexed":false,"internalType":"uint256"}],"anonymous":false},{"type":"event","name":"Permit","inputs":[{"name":"owner","type":"address","indexed":true,"internalType":"address"},{"name":"spender","type":"address","indexed":true,"internalType":"address"},{"name":"shares","type":"uint256","indexed":false,"internalType":"uint256"},{"name":"nonce","type":"uint256","indexed":false,"internalType":"uint256"},{"name":"deadline","type":"uint256","indexed":false,"internalType":"uint256"}],"anonymous":false},{"type":"event","name":"Revoke","inputs":[{"name":"sender","type":"address","indexed":true,"internalType":"address"},{"name":"selector","type":"bytes4","indexed":true,"internalType":"bytes4"},{"name":"data","type":"bytes","indexed":false,"internalType":"bytes"}],"anonymous":false},{"type":"event","name":"SetCurator","inputs":[{"name":"newCurator","type":"address","indexed":true,"internalType":"address"}],"anonymous":false},{"type":"event","name":"SetEnterGate","inputs":[{"name":"newEnterGate","type":"address","indexed":true,"internalType":"address"}],"anonymous":false},{"type":"event","name":"SetExitGate","inputs":[{"name":"newExitGate","type":"address","indexed":true,"internalType":"address"}],"anonymous":false},{"type":"event","name":"SetForceDeallocatePenalty","inputs":[{"name":"adapter","type":"address","indexed":true,"internalType":"address"},{"name":"forceDeallocatePenalty","type":"uint256","indexed":false,"internalType":"uint256"}],"anonymous":false},{"type":"event","name":"SetIsAdapter","inputs":[{"name":"account","type":"address","indexed":true,"internalType":"address"},{"name":"newIsAdapter","type":"bool","indexed":false,"internalType":"bool"}],"anonymous":false},{"type":"event","name":"SetIsAllocator","inputs":[{"name":"account","type":"address","indexed":true,"internalType":"address"},{"name":"newIsAllocator","type":"bool","indexed":false,"internalType":"bool"}],"anonymous":false},{"type":"event","name":"SetIsSentinel","inputs":[{"name":"account","type":"address","indexed":true,"internalType":"address"},{"name":"newIsSentinel","type":"bool","indexed":false,"internalType":"bool"}],"anonymous":false},{"type":"event","name":"SetLiquidityAdapter","inputs":[{"name":"sender","type":"address","indexed":true,"internalType":"address"},{"name":"newLiquidityAdapter","type":"address","indexed":true,"internalType":"address"}],"anonymous":false},{"type":"event","name":"SetLiquidityData","inputs":[{"name":"sender","type":"address","indexed":true,"internalType":"address"},{"name":"newLiquidityData","type":"bytes","indexed":true,"internalType":"bytes"}],"anonymous":false},{"type":"event","name":"SetManagementFee","inputs":[{"name":"newManagementFee","type":"uint256","indexed":false,"internalType":"uint256"}],"anonymous":false},{"type":"event","name":"SetManagementFeeRecipient","inputs":[{"name":"","type":"address","indexed":true,"internalType":"address"}],"anonymous":false},{"type":"event","name":"SetName","inputs":[{"name":"name","type":"string","indexed":false,"internalType":"string"}],"anonymous":false},{"type":"event","name":"SetOwner","inputs":[{"name":"newOwner","type":"address","indexed":true,"internalType":"address"}],"anonymous":false},{"type":"event","name":"SetPerformanceFee","inputs":[{"name":"newPerformanceFee","type":"uint256","indexed":false,"internalType":"uint256"}],"anonymous":false},{"type":"event","name":"SetPerformanceFeeRecipient","inputs":[{"name":"","type":"address","indexed":true,"internalType":"address"}],"anonymous":false},{"type":"event","name":"SetSymbol","inputs":[{"name":"symbol","type":"string","indexed":false,"internalType":"string"}],"anonymous":false},{"type":"event","name":"SetVic","inputs":[{"name":"newVic","type":"address","indexed":true,"internalType":"address"}],"anonymous":false},{"type":"event","name":"Submit","inputs":[{"name":"selector","type":"bytes4","indexed":true,"internalType":"bytes4"},{"name":"data","type":"bytes","indexed":false,"internalType":"bytes"},{"name":"executableAt","type":"uint256","indexed":false,"internalType":"uint256"}],"anonymous":false},{"type":"event","name":"Transfer","inputs":[{"name":"from","type":"address","indexed":true,"internalType":"address"},{"name":"to","type":"address","indexed":true,"internalType":"address"},{"name":"shares","type":"uint256","indexed":false,"internalType":"uint256"}],"anonymous":false},{"type":"event","name":"Withdraw","inputs":[{"name":"sender","type":"address","indexed":true,"internalType":"address"},{"name":"receiver","type":"address","indexed":true,"internalType":"address"},{"name":"onBehalf","type":"address","indexed":true,"internalType":"address"},{"name":"assets","type":"uint256","indexed":false,"internalType":"uint256"},{"name":"shares","type":"uint256","indexed":false,"internalType":"uint256"}],"anonymous":false},{"type":"error","name":"AbsoluteCapExceeded","inputs":[]},{"type":"error","name":"AbsoluteCapNotDecreasing","inputs":[]},{"type":"error","name":"AbsoluteCapNotIncreasing","inputs":[]},{"type":"error","name":"CannotReceive","inputs":[]},{"type":"error","name":"CannotReceiveUnderlyingAssets","inputs":[]},{"type":"error","name":"CannotSend","inputs":[]},{"type":"error","name":"CannotSendUnderlyingAssets","inputs":[]},{"type":"error","name":"CastOverflow","inputs":[]},{"type":"error","name":"DataAlreadyPending","inputs":[]},{"type":"error","name":"DataNotTimelocked","inputs":[]},{"type":"error","name":"EnterBlocked","inputs":[]},{"type":"error","name":"FeeInvariantBroken","inputs":[]},{"type":"error","name":"FeeTooHigh","inputs":[]},{"type":"error","name":"InfiniteTimelock","inputs":[]},{"type":"error","name":"InvalidSigner","inputs":[]},{"type":"error","name":"LiquidityAdapterInvariantBroken","inputs":[]},{"type":"error","name":"NoCode","inputs":[]},{"type":"error","name":"NotAdapter","inputs":[]},{"type":"error","name":"PenaltyTooHigh","inputs":[]},{"type":"error","name":"PermitDeadlineExpired","inputs":[]},{"type":"error","name":"RelativeCapAboveOne","inputs":[]},{"type":"error","name":"RelativeCapExceeded","inputs":[]},{"type":"error","name":"RelativeCapNotDecreasing","inputs":[]},{"type":"error","name":"RelativeCapNotIncreasing","inputs":[]},{"type":"error","name":"TimelockCapIsFixed","inputs":[]},{"type":"error","name":"TimelockDurationTooHigh","inputs":[]},{"type":"error","name":"TimelockNotDecreasing","inputs":[]},{"type":"error","name":"TimelockNotExpired","inputs":[]},{"type":"error","name":"TimelockNotIncreasing","inputs":[]},{"type":"error","name":"TransferFromReturnedFalse","inputs":[]},{"type":"error","name":"TransferFromReverted","inputs":[]},{"type":"error","name":"TransferReturnedFalse","inputs":[]},{"type":"error","name":"TransferReverted","inputs":[]},{"type":"error","name":"Unauthorized","inputs":[]},{"type":"error","name":"ZeroAddress","inputs":[]}],"bytecode":{"object":"0x60a0604052346103fe576155568038038061001981610402565b9283398101906080818303126103fe5761003281610427565b9061003f60208201610427565b60408201519091906001600160401b0381116103fe578461006191830161043b565b60608201519094906001600160401b0381116103fe57610081920161043b565b6080829052600280546001600160a01b0319166001600160a01b03909416938417905583519092906001600160401b038111610312575f54600181811c911680156103f4575b60208210146102f457601f8111610392575b50602094601f8211600114610331579481929394955f92610326575b50508160011b915f199060031b1c1916175f555b82516001600160401b03811161031257600154600181811c91168015610308575b60208210146102f457601f8111610291575b506020601f821160011461022e57819293945f92610223575b50508160011b915f199060031b1c1916176001555b600c80546001600160c01b03164260c01b6001600160c01b031916179055635c1a1a4f60e01b5f9081526015602052621275007fd432574afccdc9bc85249291badcc5692192c2c0d5a4da9ce6b9e8b57a6ef3e355604051926001600160a01b031691907f612d665a88b3ae6bc3e53207bfc2db673e2e05e2aa4a68043b618cc81295a27d9080a36150c9908161048d823960805181818161269301528181612e8901528181613281015281816149fa0152614ca00152f35b015190505f80610155565b601f1982169060015f52805f20915f5b81811061027957509583600195969710610261575b505050811b0160015561016a565b01515f1960f88460031b161c191690555f8080610253565b9192602060018192868b01518155019401920161023e565b60015f527fb10e2d527612073b26eecdfd717e6a320cf44b4afac2b0732d9fcbe2b7fa0cf6601f830160051c810191602084106102ea575b601f0160051c01905b8181106102df575061013c565b5f81556001016102d2565b90915081906102c9565b634e487b7160e01b5f52602260045260245ffd5b90607f169061012a565b634e487b7160e01b5f52604160045260245ffd5b015190505f806100f5565b601f198216955f8052805f20915f5b88811061037a57508360019596979810610362575b505050811b015f55610109565b01515f1960f88460031b161c191690555f8080610355565b91926020600181928685015181550194019201610340565b5f80527f290decd9548b62a8d60345a988386fc84ba6bc95484008f6362f93160ef3e563601f830160051c810191602084106103ea575b601f0160051c01905b8181106103df57506100d9565b5f81556001016103d2565b90915081906103c9565b90607f16906100c7565b5f80fd5b6040519190601f01601f191682016001600160401b0381118382101761031257604052565b51906001600160a01b03821682036103fe57565b81601f820112156103fe578051906001600160401b0382116103125761046a601f8301601f1916602001610402565b92828452602083830101116103fe57815f9260208093018386015e830101529056fe6080806040526004361015610012575f80fd5b5f905f3560e01c90816301e1d114146138c85750806306fdde0314613826578063095ea7b3146137a15780630a28a477146137835780630b467b9b1461369f57806313af40351461360057806314b7165d146135dd57806318160ddd146135c05780631a2c69ea1461358d57806323b872dd146134225780632438525b1461330c5780632bc06a92146132e95780632e029228146132bf5780633644e515146132a557806338d52e0f146132555780633e9d2ac7146131635780634520a18c146130855780634796629114612f7f5780634b219d1614612d535780634cdad50614612d355780634dedf20e14612ceb57806351d4947d14612c1d57806354adb2f114612bfc5780635797527014612b2e5780635c1a1a4f146129805780635c9ce04d1461262457806360a38ac1146125ec57806368c18beb146125a25780636a5f1aa2146124925780636d9a3010146124725780636e553f651461243957806370897b231461231757806370a08231146122d25780637514ddfd1461229f5780637ecebe001461225a5780638639fb071461220457806387788782146121d95780638c54519b146121065780638da5cb5b146120d357806390d370ba146120b0578063920ed7061461200857806394bf804d14611fcf57806395d89b4114611ee357806399e9918314611e9e5780639faae46414611d66578063a68bafa314611d3c578063a6afed9514611d24578063a6f7f5d614611cf9578063a9059cbb14611bc2578063ac9650d814611ad1578063ad468d1114611a9e578063b192a84a146119c8578063b332ebf2146118b3578063b3d7f6b914611895578063b460af9414611866578063b48a72e914611839578063b84c824614611630578063ba03a75f146115e6578063ba087652146115b7578063bc0dd3741461158d578063c04637111461156d578063c07337ee1461137f578063c47f002714611109578063c69507dd146110df578063c8ad2499146110ac578063d505accf14610dee578063d5f8060014610d18578063db1398c314610bfa578063dd62ed3e14610b8c578063e4d38cd814610a18578063e66f53b7146109e4578063e78ab14e14610993578063e90956cf146108f3578063ed27f7c9146108d2578063ef7fa71b14610785578063ef8b30f71461075e578063f6f98fd514610628578063f8bfe0ff1461051d5763fe56e23214610383575f80fd5b3461051a57602060031936011261051a5760043560405136838237602081368101601681520301902054156104f2576040513683823760208136810160168152030190205442106104ca578160405136828237602081368101601681520301902055635e80a6bf81116104a25760185460601c1580159061049a575b156104725760207fd87632b1c6ebfa21acbca0e3279b3cf6385a377cb8fda51e5b866baa6e6012ab9161043061445c565b6bffffffffffffffffffffffff81167fffffffffffffffffffffffffffffffffffffffff0000000000000000000000006018541617601855604051908152a180f35b6004827fda9e0fa0000000000000000000000000000000000000000000000000000000008152fd5b5080156103ff565b6004827fcd4e6167000000000000000000000000000000000000000000000000000000008152fd5b6004827f621e25c3000000000000000000000000000000000000000000000000000000008152fd5b6004827f1ea942a8000000000000000000000000000000000000000000000000000000008152fd5b80fd5b503461051a57602060031936011261051a576105376139d1565b338252600760205260ff604083205416156106005773ffffffffffffffffffffffffffffffffffffffff16801580156105ea575b156105c257807fffffffffffffffffffffffff00000000000000000000000000000000000000006013541617601355337f952cc8747f83185688b392112e582343bfdc49fab1600cd5b7960b0b7122d5a88380a380f35b6004827fb59cb291000000000000000000000000000000000000000000000000000000008152fd5b50808252600e60205260ff60408320541661056b565b6004827f82b42900000000000000000000000000000000000000000000000000000000008152fd5b503461051a5761063736613af6565b60405136848237602081368101601681520301902054156107365760405136848237602081368101601681520301902054421061070e57826040513682823760208136810160168152030190205581516020830120918284526010602052604084205482106106e657907f7368d59ed82f6a538f6deef9baa54623fe3699ce07b19031f762f740c8c34b039183855260106020528160408620556106e060405192839283613ef8565b0390a280f35b6004847fa844d937000000000000000000000000000000000000000000000000000000008152fd5b6004837f621e25c3000000000000000000000000000000000000000000000000000000008152fd5b6004837f1ea942a8000000000000000000000000000000000000000000000000000000008152fd5b503461051a57602060031936011261051a57602061077d6004356146a0565b604051908152f35b503461051a5761079436613a17565b9073ffffffffffffffffffffffffffffffffffffffff6003541633036108aa576040518282823760208184810160168152030190205461088257807fffffffff0000000000000000000000000000000000000000000000000000000061081b847f8b18afeb361b83b025999ed5b42f1d90c68aaa5a0fd49c015f04c3b8b81e80eb94613d7e565b16928385526015602052610833604086205442613d34565b6040518284823760208184810160168152030190205560405181838237602081838101601681520301902054610876604051938493604085526040850191613de4565b9060208301520390a280f35b6004837fd91ff208000000000000000000000000000000000000000000000000000000008152fd5b6004837f82b42900000000000000000000000000000000000000000000000000000000008152fd5b503461051a578060031936011261051a57602060175460601c604051908152f35b503461051a57602060031936011261051a5761090d6139d1565b73ffffffffffffffffffffffffffffffffffffffff6002541633036106005773ffffffffffffffffffffffffffffffffffffffff16807fffffffffffffffffffffffff000000000000000000000000000000000000000060035416176003557fbd0a63c12948fbc9194a5839019f99c9d71db924e5c70018265bc778b8f1a5068280a280f35b503461051a57602060031936011261051a5760406020917fffffffff000000000000000000000000000000000000000000000000000000006109d3613be5565b168152601583522054604051908152f35b503461051a578060031936011261051a57602073ffffffffffffffffffffffffffffffffffffffff60035416604051908152f35b5034610b88576080600319360112610b8857610a326139d1565b9060243567ffffffffffffffff8111610b8857610a53903690600401613ad8565b91604435906064359273ffffffffffffffffffffffffffffffffffffffff841692838503610b8857303b15610b8857604051957f4b219d160000000000000000000000000000000000000000000000000000000087525f8780610abb8585896004850161466d565b038183305af1928315610b7d576020977f6b35a072ed598883d1f9e0a7505a4ef7024a8932b1ae0e744df15a37297cf5bc94610b62575b50670de0b6b3a7640000610b2a6040610b469373ffffffffffffffffffffffffffffffffffffffff8916815260128c52205485614174565b0496610b3461445c565b610b3d88613d41565b97883091614c80565b610b5760405192839233968461466d565b0390a3604051908152f35b610b6e91505f9061394d565b5f670de0b6b3a7640000610af2565b6040513d5f823e3d90fd5b5f80fd5b34610b88576040600319360112610b8857610ba56139d1565b73ffffffffffffffffffffffffffffffffffffffff610bc26139f4565b91165f52600a60205273ffffffffffffffffffffffffffffffffffffffff60405f2091165f52602052602060405f2054604051908152f35b34610b88576020600319360112610b8857610c136139d1565b604051365f823760208136810160168152030190205415610cf057604051365f82376020813681016016815203019020544210610cc85773ffffffffffffffffffffffffffffffffffffffff905f6040513682823760208136810160168152030190205516807fffffffffffffffffffffffff000000000000000000000000000000000000000060045416176004557f4e8ef482fdf6f3e9f36e74616b415fed0d7853f4dfeaab0f7d990e195f7e5c355f80a2005b7f621e25c3000000000000000000000000000000000000000000000000000000005f5260045ffd5b7f1ea942a8000000000000000000000000000000000000000000000000000000005f5260045ffd5b34610b88576020600319360112610b8857610d316139d1565b604051365f823760208136810160168152030190205415610cf057604051365f82376020813681016016815203019020544210610cc85773ffffffffffffffffffffffffffffffffffffffff905f60405136828237602081368101601681520301902055610d9d61445c565b16807fffffffffffffffffffffffff0000000000000000000000000000000000000000600d541617600d557fd4d20e226dcf5a47f2b86c0eeb910bdce90eb31fcc433e23fec4c5f08859c3b95f80a2005b34610b885760e0600319360112610b8857610e076139d1565b610e0f6139f4565b9060443590606435906084359060ff8216809203610b88574283106110845773ffffffffffffffffffffffffffffffffffffffff1692835f52600b60205260405f208054927fffffffffffffffffffffffffffffffffffffffffffffffffffffffffffffffff84146110575760805f916020936001870190556040519873ffffffffffffffffffffffffffffffffffffffff858b01917f6e71edae12b1b97f4d1f60370fef10105fa2faae0126114a169c64845d6126c983528a60408d015216998a606082015286848201528760a08201528860c082015260c08152610ef660e08261394d565b519020610f01613f9c565b9060405190868201927f190100000000000000000000000000000000000000000000000000000000000084526022830152604282015260428152610f4660628261394d565b519020906040519182528482015260a435604082015260c435606082015282805260015afa15610b7d5773ffffffffffffffffffffffffffffffffffffffff5f511684811515918261104d575b505015611025576110207f40336af4b170f3dad5ddfb59897a8289adc3bed01417ca7e2bd77f85bc52641393855f52600a60205260405f20875f526020528260405f205586867f8c5be1e5ebec7d5bd14f71427d1e84f3dd0314c0f7b2291e5b200ac8c7c3b9256020604051878152a3604051938493846040919493926060820195825260208201520152565b0390a3005b7f815e1d64000000000000000000000000000000000000000000000000000000005f5260045ffd5b1490508487610f93565b7f4e487b71000000000000000000000000000000000000000000000000000000005f52601160045260245ffd5b7f05787bdf000000000000000000000000000000000000000000000000000000005f5260045ffd5b34610b88575f600319360112610b8857602073ffffffffffffffffffffffffffffffffffffffff60045416604051908152f35b34610b88576020600319360112610b88576004355f52600f602052602060405f2054604051908152f35b34610b885761111736613cf8565b73ffffffffffffffffffffffffffffffffffffffff60025416330361135757805167ffffffffffffffff811161132a576111515f546138fc565b601f81116112d2575b506020601f82116001146111f257916111cb826111e2937f4df9dcd34ae35f40f2c756fd8ac83210ed0b76d065543ee73d868aec7c7fcf02955f916111e7575b507fffffffffffffffffffffffffffffffffffffffffffffffffffffffffffffffff8260011b9260031b1c19161790565b5f555b60405191829160208352602083019061398e565b0390a1005b90508301518661119a565b7fffffffffffffffffffffffffffffffffffffffffffffffffffffffffffffffe08216905f80527f290decd9548b62a8d60345a988386fc84ba6bc95484008f6362f93160ef3e563915f5b8181106112ba5750927f4df9dcd34ae35f40f2c756fd8ac83210ed0b76d065543ee73d868aec7c7fcf029492600192826111e29610611283575b5050811b015f556111ce565b8401517fffffffffffffffffffffffffffffffffffffffffffffffffffffffffffffffff60f88460031b161c191690558580611277565b9192602060018192868901518155019401920161123d565b5f805261131a907f290decd9548b62a8d60345a988386fc84ba6bc95484008f6362f93160ef3e563601f840160051c81019160208510611320575b601f0160051c0190614657565b8261115a565b909150819061130d565b7f4e487b71000000000000000000000000000000000000000000000000000000005f52604160045260245ffd5b7f82b42900000000000000000000000000000000000000000000000000000000005f5260045ffd5b34610b88576020600319360112610b885760043567ffffffffffffffff8111610b88576113b0903690600401613ad8565b335f52600760205260ff60405f2054161561135757805167ffffffffffffffff811161132a576020916113e46014546138fc565b601f811161153e575b508291601f8111600114611484578061143892935f9161147957507fffffffffffffffffffffffffffffffffffffffffffffffffffffffffffffffff8260011b9260031b1c19161790565b6014555b604051918183925191829101835e81015f8152039020337f4e25389824b981d56cff00a10653720889897fbab77e2ebc82bffefe0bead6d05f80a3005b90508301518561119a565b7fffffffffffffffffffffffffffffffffffffffffffffffffffffffffffffffe081169260145f527fce6d7b5282bd9a3661ae061feed1dbda4e52ab073b1f9285be6e155d9c38d4ec905f5b85811061152757508260019495106114f0575b5050811b0160145561143c565b8401517fffffffffffffffffffffffffffffffffffffffffffffffffffffffffffffffff60f88460031b161c1916905584806114e3565b9091866001819285880151815501930191016114d0565b6115679060145f52845f20601f850160051c81019186861061132057601f0160051c0190614657565b836113ed565b34610b88575f600319360112610b88576020600c5460c01c604051908152f35b34610b88576020600319360112610b88576004355f526010602052602060405f2054604051908152f35b34610b8857602061077d6115ca36613ca4565b906115d693929361445c565b6115df846140ff565b9384614c80565b34610b88576020600319360112610b885773ffffffffffffffffffffffffffffffffffffffff6116146139d1565b165f526006602052602060ff60405f2054166040519015158152f35b34610b885761163e36613cf8565b73ffffffffffffffffffffffffffffffffffffffff60025416330361135757805167ffffffffffffffff811161132a576116796001546138fc565b601f81116117eb575b506020601f821160011461170957916116f2826111e2937fadf3ae8bd543b3007d464f15cb8ea1db3f44e84d41d203164f40b95e27558ac6955f916111e757507fffffffffffffffffffffffffffffffffffffffffffffffffffffffffffffffff8260011b9260031b1c19161790565b60015560405191829160208352602083019061398e565b7fffffffffffffffffffffffffffffffffffffffffffffffffffffffffffffffe082169060015f527fb10e2d527612073b26eecdfd717e6a320cf44b4afac2b0732d9fcbe2b7fa0cf6915f5b8181106117d35750927fadf3ae8bd543b3007d464f15cb8ea1db3f44e84d41d203164f40b95e27558ac69492600192826111e2961061179c575b5050811b016001556111ce565b8401517fffffffffffffffffffffffffffffffffffffffffffffffffffffffffffffffff60f88460031b161c19169055858061178f565b91926020600181928689015181550194019201611755565b60015f52611833907fb10e2d527612073b26eecdfd717e6a320cf44b4afac2b0732d9fcbe2b7fa0cf6601f840160051c8101916020851061132057601f0160051c0190614657565b82611682565b34610b88576020600319360112610b8857602061185c6118576139d1565b6145cf565b6040519015158152f35b34610b8857602061077d61187936613ca4565b9061188593929361445c565b61188e84613d41565b8094614c80565b34610b88576020600319360112610b8857602061077d6004356145a1565b34610b88576118c136613c68565b604051365f823760208136810160168152030190205415610cf057604051365f82376020813681016016815203019020544210610cc8575f6040513682823760208136810160168152030190205573ffffffffffffffffffffffffffffffffffffffff806013541692169182146119a05760207fabc24a8e0aba37751b4882519378921023b11a778c2ab51b7783ecc94464fb7991835f52600e82526119958160405f209060ff7fffffffffffffffffffffffffffffffffffffffffffffffffffffffffffffff0083541691151516179055565b6040519015158152a2005b7fb59cb291000000000000000000000000000000000000000000000000000000005f5260045ffd5b34610b88576119d636613c68565b90604051365f823760208136810160168152030190205415610cf057604051365f82376020813681016016815203019020544210610cc857602073ffffffffffffffffffffffffffffffffffffffff7f74dc60cbc81a9472d04ad1d20e151d369c41104d655ed3f2f3091166a502cd8d925f6040513682823784813681016016815203019020551692835f52600782526119958160405f209060ff7fffffffffffffffffffffffffffffffffffffffffffffffffffffffffffffff0083541691151516179055565b34610b88575f600319360112610b8857602073ffffffffffffffffffffffffffffffffffffffff60135416604051908152f35b34610b88576020600319360112610b885760043567ffffffffffffffff8111610b885736602382011215610b8857806004013567ffffffffffffffff8111610b88573660248260051b84010111610b8857905f907fffffffffffffffffffffffffffffffffffffffffffffffffffffffffffffffbd81360301915b83811015611bc05760248160051b8301013583811215610b8857820160248101359067ffffffffffffffff8211610b88576044018136038113610b8857815f92918392604051928392833781018381520390305af4611ba9614572565b9015611bb85750600101611b4c565b805190602001fd5b005b34610b88576040600319360112610b8857611bdb6139d1565b60243573ffffffffffffffffffffffffffffffffffffffff8216918215611cd157611c0533613f14565b15611ca957611c13906143d4565b15611c8157335f52600960205260405f20611c2f828254613eeb565b9055815f52600960205260405f20611c48828254613d34565b90556040519081527fddf252ad1be2c89b69c2b068fc378daa952ba7f163c4a11628f55a4df523b3ef60203392a3602060405160018152f35b7fb8ba16bf000000000000000000000000000000000000000000000000000000005f5260045ffd5b7f6f64fc3a000000000000000000000000000000000000000000000000000000005f5260045ffd5b7fd92e233d000000000000000000000000000000000000000000000000000000005f5260045ffd5b34610b88575f600319360112610b885760206bffffffffffffffffffffffff60185416604051908152f35b34610b88575f600319360112610b8857611bc061445c565b34610b88576020600319360112610b88576004355f526011602052602060405f2054604051908152f35b34610b88576020600319360112610b8857611d7f6139d1565b604051365f823760208136810160168152030190205415610cf057604051365f82376020813681016016815203019020544210610cc8575f6040513682823760208136810160168152030190205573ffffffffffffffffffffffffffffffffffffffff8116908115801590611e86575b15611e5e57611dfc61445c565b6bffffffffffffffffffffffff7fffffffffffffffffffffffffffffffffffffffff0000000000000000000000006018549260601b169116176018557f7f1dd9b78dfeeb8c452333915b2f077f4920fefc4ec7f146767e9ba40303ef1f5f80a2005b7fda9e0fa0000000000000000000000000000000000000000000000000000000005f5260045ffd5b506bffffffffffffffffffffffff6018541615611def565b34610b88576020600319360112610b885773ffffffffffffffffffffffffffffffffffffffff611ecc6139d1565b165f526012602052602060405f2054604051908152f35b34610b88575f600319360112610b88576040515f600154611f03816138fc565b8084529060018116908115611f8d5750600114611f2f575b611f2b836111ce8185038261394d565b0390f35b60015f9081527fb10e2d527612073b26eecdfd717e6a320cf44b4afac2b0732d9fcbe2b7fa0cf6939250905b808210611f73575090915081016020016111ce611f1b565b919260018160209254838588010152019101909291611f5b565b7fffffffffffffffffffffffffffffffffffffffffffffffffffffffffffffff001660208086019190915291151560051b840190910191506111ce9050611f1b565b34610b88576040600319360112610b8857602060043561077d611ff06139f4565b611ff861445c565b612001836145a1565b92836149cc565b34610b885761201636613c68565b9073ffffffffffffffffffffffffffffffffffffffff60025416330361135757602073ffffffffffffffffffffffffffffffffffffffff7f8da69db4003c01b5c7be66a7bb5953423222e5118b6af0aadf54e75feef5bc50921692835f52600682526119958160405f209060ff7fffffffffffffffffffffffffffffffffffffffffffffffffffffffffffffff0083541691151516179055565b34610b88576020600319360112610b8857602061185c6120ce6139d1565b6143d4565b34610b88575f600319360112610b8857602073ffffffffffffffffffffffffffffffffffffffff60025416604051908152f35b34610b885761211436613af6565b90805160208201209173ffffffffffffffffffffffffffffffffffffffff60035416331480156121c3575b1561135757825f52601060205260405f2054811161219b577f5b92a69d81c32f8b138313a746f782653297401ecad9c4679990fa95210708a291835f5260106020528160405f205561219660405192839283613ef8565b0390a2005b7fbdeafe07000000000000000000000000000000000000000000000000000000005f5260045ffd5b50335f52600660205260ff60405f20541661213f565b34610b88575f600319360112610b885760206bffffffffffffffffffffffff60175416604051908152f35b34610b88576020600319360112610b885760043567ffffffffffffffff8111610b885760208061223981933690600401613ad8565b604051928184925191829101835e8101601681520301902054604051908152f35b34610b88576020600319360112610b885773ffffffffffffffffffffffffffffffffffffffff6122886139d1565b165f52600b602052602060405f2054604051908152f35b34610b88575f600319360112610b8857602073ffffffffffffffffffffffffffffffffffffffff60055416604051908152f35b34610b88576020600319360112610b885773ffffffffffffffffffffffffffffffffffffffff6123006139d1565b165f526009602052602060405f2054604051908152f35b34610b88576020600319360112610b8857600435604051365f823760208136810160168152030190205415610cf057604051365f82376020813681016016815203019020544210610cc8575f604051368282376020813681016016815203019020556706f05b59d3b2000081116124115760175460601c15801590612409575b15611e5e5760207f8b940a95968ad5b511f89b01075446a4fe9f614f2dc5fbb9e9a6b227d6d4fd70916123c861445c565b6bffffffffffffffffffffffff81167fffffffffffffffffffffffffffffffffffffffff0000000000000000000000006017541617601755604051908152a1005b508015612397565b7fcd4e6167000000000000000000000000000000000000000000000000000000005f5260045ffd5b34610b88576040600319360112610b8857602060043561077d61245a6139f4565b61246261445c565b61246b836146a0565b80936149cc565b34610b88575f600319360112610b8857602060185460601c604051908152f35b34610b88576020600319360112610b88576124ab6139d1565b604051365f823760208136810160168152030190205415610cf057604051365f82376020813681016016815203019020544210610cc8575f6040513682823760208136810160168152030190205573ffffffffffffffffffffffffffffffffffffffff811690811580159061258a575b15611e5e5761252861445c565b6bffffffffffffffffffffffff7fffffffffffffffffffffffffffffffffffffffff0000000000000000000000006017549260601b169116176017557fe59cc3d47f72dbd81f7d5fc40b9b05d9c4374a54addea771648ae24943c26e765f80a2005b506bffffffffffffffffffffffff601754161561251b565b34610b88576020600319360112610b885773ffffffffffffffffffffffffffffffffffffffff6125d06139d1565b165f52600e602052602060ff60405f2054166040519015158152f35b34610b88575f600319360112610b8857611f2b612607614187565b604080519384526020840192909252908201529081906060820190565b34610b885761263236613c14565b919091335f52600760205260ff60405f2054168015612977575b156113575773ffffffffffffffffffffffffffffffffffffffff821692835f52600e60205260ff60405f2054161561294f57815f916126b7826126eb9661269161445c565b7f00000000000000000000000000000000000000000000000000000000000000006148a3565b60405194859283927f9d1bdc0000000000000000000000000000000000000000000000000000000000845260048401613ef8565b038183875af18015610b7d575f925f91612927575b50806128a3575b5f5b835181101561286e5761271c8185614075565b515f52600f6020526127398360405f205484808203911102613d34565b6127438286614075565b515f52600f60205260405f205561275a8185614075565b515f52600f60205260405f20546127718286614075565b515f52601060205260405f2054106128465761278d8185614075565b515f526011602052670de0b6b3a764000060405f20541480156127e0575b156127b857600101612709565b7f44e1772c000000000000000000000000000000000000000000000000000000005f5260045ffd5b506127eb8185614075565b515f52600f60205260405f2054670de0b6b3a764000061283e77ffffffffffffffffffffffffffffffffffffffffffffffff600c541661282b8589614075565b515f52601160205260405f205490614174565b0410156127ab565b7f4616e4af000000000000000000000000000000000000000000000000000000005f5260045ffd5b507f895a8debd181174e606aef4d75e2349f70eea6e934e27908b54e6f1c07bcc71b91926110206040519283923396846140b6565b600c547fffffffffffffffff00000000000000000000000000000000000000000000000077ffffffffffffffffffffffffffffffffffffffffffffffff6128f281841685808203911102614715565b16911617600c5560017fffffffffffffffffffffffffffffffffffffffffffffffffffffffffffffff005f5c16175f5d612707565b90506129469192503d805f833e61293e818361394d565b810190613fe8565b91909184612700565b7ff521d159000000000000000000000000000000000000000000000000000000005f5260045ffd5b5030331461264c565b34610b88576040600319360112610b8857612999613be5565b60243590604051365f823760208136810160168152030190205415610cf057604051365f82376020813681016016815203019020544210610cc8577fffffffff00000000000000000000000000000000000000000000000000000000905f6040513682823760208136810160168152030190205516907f5c1a1a4f000000000000000000000000000000000000000000000000000000008214612b0657815f5260156020527fffffffffffffffffffffffffffffffffffffffffffffffffffffffffffffffff60405f205414612ade57815f52601560205260405f20548111612ab65760207f488e0bfafe0a9580c2271bee1f563a47d309f0105ca950ea525d909b43b36daf91835f52601582528060405f2055604051908152a2005b7f17e0a21c000000000000000000000000000000000000000000000000000000005f5260045ffd5b7fd5253b43000000000000000000000000000000000000000000000000000000005f5260045ffd5b7fdbd85d7d000000000000000000000000000000000000000000000000000000005f5260045ffd5b34610b8857612b3c36613af6565b90805160208201209173ffffffffffffffffffffffffffffffffffffffff6003541633148015612be6575b1561135757825f52601160205260405f20548111612bbe577fb693a36caa7a5b24717e77c97ce43f86df6c111d1602043d3f3257ae20d0c3de91835f5260116020528160405f205561219660405192839283613ef8565b7f04c27fbf000000000000000000000000000000000000000000000000000000005f5260045ffd5b50335f52600660205260ff60405f205416612b67565b34610b88575f600319360112610b8857602060ff5f5c166040519015158152f35b34610b88576020600319360112610b8857612c366139d1565b604051365f823760208136810160168152030190205415610cf057604051365f82376020813681016016815203019020544210610cc85773ffffffffffffffffffffffffffffffffffffffff905f6040513682823760208136810160168152030190205516807fffffffffffffffffffffffff000000000000000000000000000000000000000060055416176005557ffaa86a015f1e6d6c237ca06b75d22b3d26a29e72a6bf4bfec90a1ff98ba561fb5f80a2005b34610b88576020600319360112610b885773ffffffffffffffffffffffffffffffffffffffff612d196139d1565b165f526007602052602060ff60405f2054166040519015158152f35b34610b88576020600319360112610b8857602061077d6004356140ff565b34610b8857612d6136613c14565b9190335f52600760205260ff60405f2054168015612f69575b8015612f60575b156113575773ffffffffffffffffffffffffffffffffffffffff821690815f52600e60205260ff60405f2054161561294f575f84612ded9260405193849283927f23a6aad700000000000000000000000000000000000000000000000000000000845260048401613ef8565b038183865af1918215610b7d575f915f93612f42575b5082612ebe575b5f5b8251811015612e5c5780612e2260019285614075565b515f52600f60205260405f2054612e398887613d34565b612e438387614075565b515f52600f60205280820391110260405f205501612e0c565b50847f7c9c17dce5db337351e34ed7ce56305cb775b0a4536a444f907ae4b3b45898c78484612ead84308a7f0000000000000000000000000000000000000000000000000000000000000000614779565b6110206040519283923396846140b6565b600c547fffffffffffffffff00000000000000000000000000000000000000000000000077ffffffffffffffffffffffffffffffffffffffffffffffff612f0d81841687808203911102614715565b16911617600c5560017fffffffffffffffffffffffffffffffffffffffffffffffffffffffffffffff005f5c16175f5d612e0a565b909250612f5991503d805f833e61293e818361394d565b9185612e03565b50303314612d81565b50335f52600660205260ff60405f205416612d7a565b34610b88576040600319360112610b8857612f98613be5565b6024359073ffffffffffffffffffffffffffffffffffffffff6003541633036113575762127500821161305d577fffffffff000000000000000000000000000000000000000000000000000000001690815f52601560205260405f205481106130355760207fed380a7a1f0afc99b313ac7d9f1e52e44430d32b4639c7993bd0021974e30c0e91835f52601582528060405f2055604051908152a2005b7f470f70c2000000000000000000000000000000000000000000000000000000005f5260045ffd5b7fefd61310000000000000000000000000000000000000000000000000000000005f5260045ffd5b34610b88576020600319360112610b885761309e613be5565b604051365f823760208136810160168152030190205415610cf057604051365f82376020813681016016815203019020544210610cc8577fffffffff00000000000000000000000000000000000000000000000000000000905f6040513682823760208136810160168152030190205516805f5260156020527fffffffffffffffffffffffffffffffffffffffffffffffffffffffffffffffff60405f20557ff2432b056d929e98f5cd1c7421afb4aa74c68436c834a753a07aac1852be762a5f80a2005b34610b88576040600319360112610b885761317c6139d1565b60243590604051365f823760208136810160168152030190205415610cf057604051365f82376020813681016016815203019020544210610cc8575f6040513682823760208136810160168152030190205566470de4df820000821161322d57602073ffffffffffffffffffffffffffffffffffffffff7f1e29a0bf54cf1e929f17cc97a198ff5cf7f8da1df1cb8ff67f7184ce380f3924921692835f52601282528060405f2055604051908152a2005b7f516e7f38000000000000000000000000000000000000000000000000000000005f5260045ffd5b34610b88575f600319360112610b8857602060405173ffffffffffffffffffffffffffffffffffffffff7f0000000000000000000000000000000000000000000000000000000000000000168152f35b34610b88575f600319360112610b8857602061077d613f9c565b34610b88575f600319360112610b8857611f2b6040516111ce816132e281613b28565b038261394d565b34610b88576020600319360112610b8857602061185c6133076139d1565b613f14565b34610b885761331a36613af6565b90604051365f823760208136810160168152030190205415610cf057604051365f82376020813681016016815203019020544210610cc8575f604051368282376020813681016016815203019020558051602082012091670de0b6b3a764000081116133fa57825f52601160205260405f205481106133d2577f2a343b9a1ceba40853d01c6adeea53f5c0e4b95b4eb870ed4af309a0ead7e39991835f5260116020528160405f205561219660405192839283613ef8565b7f8433449d000000000000000000000000000000000000000000000000000000005f5260045ffd5b7f0d6108b6000000000000000000000000000000000000000000000000000000005f5260045ffd5b34610b88576060600319360112610b885761343b6139d1565b6134436139f4565b60443573ffffffffffffffffffffffffffffffffffffffff8316918215611cd15773ffffffffffffffffffffffffffffffffffffffff8116938415611cd15761348b90613f14565b15611ca957613499906143d4565b15611c815760207fddf252ad1be2c89b69c2b068fc378daa952ba7f163c4a11628f55a4df523b3ef9183330361350c575b835f526009825260405f206134e0828254613eeb565b9055845f526009825260405f206134f8828254613d34565b9055604051908152a3602060405160018152f35b5f848152600a8352604080822033835284529020548160018201613532575b50506134ca565b816135408261355a94613eeb565b5f888152600a875260408082203383528852902055613eeb565b604051908152847fc1886047cf852ffdaeda16dafd86e28507781ffba1faafef1d536d4abaa260b0843393a3858161352b565b34610b88575f600319360112610b8857602073ffffffffffffffffffffffffffffffffffffffff600d5416604051908152f35b34610b88575f600319360112610b88576020600854604051908152f35b34610b88576020600319360112610b8857602061185c6135fb6139d1565b613e3a565b34610b88576020600319360112610b88576136196139d1565b60025473ffffffffffffffffffffffffffffffffffffffff811633036113575773ffffffffffffffffffffffffffffffffffffffff7fffffffffffffffffffffffff0000000000000000000000000000000000000000921691829116176002557f167d3e9c1016ab80e58802ca9da10ce5c6a0f4debc46a2e7a2cd9e56899a4fb55f80a2005b34610b88576136ad36613a17565b73ffffffffffffffffffffffffffffffffffffffff600354163314801561376d575b15611357576040518183823760208183810160168152030190205415610cf0575f604051828482376020818481016016815203019020557f70521cf6a7c2458c5ad406081ad7b3bc4afd31b01b586a157a9780fcee6a77cb6110207fffffffff000000000000000000000000000000000000000000000000000000006137558486613d7e565b16936040519182916020835233956020840191613de4565b50335f52600660205260ff60405f2054166136cf565b34610b88576020600319360112610b8857602061077d600435613d41565b34610b88576040600319360112610b88576137ba6139d1565b73ffffffffffffffffffffffffffffffffffffffff60243591335f52600a60205260405f208282165f526020528260405f205560405192835216907f8c5be1e5ebec7d5bd14f71427d1e84f3dd0314c0f7b2291e5b200ac8c7c3b92560203392a3602060405160018152f35b34610b88575f600319360112610b88576040515f5f54613845816138fc565b8084529060018116908115611f8d575060011461386c57611f2b836111ce8185038261394d565b5f8080527f290decd9548b62a8d60345a988386fc84ba6bc95484008f6362f93160ef3e563939250905b8082106138ae575090915081016020016111ce611f1b565b919260018160209254838588010152019101909291613896565b34610b88575f600319360112610b885760209077ffffffffffffffffffffffffffffffffffffffffffffffff600c54168152f35b90600182811c92168015613943575b602083101461391657565b7f4e487b71000000000000000000000000000000000000000000000000000000005f52602260045260245ffd5b91607f169161390b565b90601f7fffffffffffffffffffffffffffffffffffffffffffffffffffffffffffffffe0910116810190811067ffffffffffffffff82111761132a57604052565b907fffffffffffffffffffffffffffffffffffffffffffffffffffffffffffffffe0601f602080948051918291828752018686015e5f8582860101520116010190565b6004359073ffffffffffffffffffffffffffffffffffffffff82168203610b8857565b6024359073ffffffffffffffffffffffffffffffffffffffff82168203610b8857565b906020600319830112610b885760043567ffffffffffffffff8111610b885782602382011215610b885780600401359267ffffffffffffffff8411610b885760248483010111610b88576024019190565b67ffffffffffffffff811161132a57601f017fffffffffffffffffffffffffffffffffffffffffffffffffffffffffffffffe01660200190565b929192613aae82613a68565b91613abc604051938461394d565b829481845281830111610b88578281602093845f960137010152565b9080601f83011215610b8857816020613af393359101613aa2565b90565b6040600319820112610b88576004359067ffffffffffffffff8211610b8857613b2191600401613ad8565b9060243590565b6014545f9291613b37826138fc565b8082529160018116908115613bab5750600114613b52575050565b60145f9081529293509091907fce6d7b5282bd9a3661ae061feed1dbda4e52ab073b1f9285be6e155d9c38d4ec5b838310613b91575060209250010190565b600181602092949394548385870101520191019190613b80565b60209495507fffffffffffffffffffffffffffffffffffffffffffffffffffffffffffffff0091509291921683830152151560051b010190565b600435907fffffffff0000000000000000000000000000000000000000000000000000000082168203610b8857565b906060600319830112610b885760043573ffffffffffffffffffffffffffffffffffffffff81168103610b8857916024359067ffffffffffffffff8211610b8857613c6191600401613ad8565b9060443590565b6003196040910112610b885760043573ffffffffffffffffffffffffffffffffffffffff81168103610b8857906024358015158103610b885790565b6003196060910112610b88576004359060243573ffffffffffffffffffffffffffffffffffffffff81168103610b88579060443573ffffffffffffffffffffffffffffffffffffffff81168103610b885790565b6020600319820112610b88576004359067ffffffffffffffff8211610b885780602383011215610b8857816024613af393600401359101613aa2565b9190820180921161105757565b613d5a613d5f613d4f614187565b919390600854613d34565b613d34565b60018101809111611057576001820180921161105757613af3926146d2565b919091357fffffffff0000000000000000000000000000000000000000000000000000000081169260048110613db2575050565b7fffffffff00000000000000000000000000000000000000000000000000000000929350829060040360031b1b161690565b601f82602094937fffffffffffffffffffffffffffffffffffffffffffffffffffffffffffffffe093818652868601375f8582860101520116010190565b90816020910312610b8857518015158103610b885790565b73ffffffffffffffffffffffffffffffffffffffff600554168015918215613e6157505090565b6020919250602473ffffffffffffffffffffffffffffffffffffffff9160405194859384927f0d326b180000000000000000000000000000000000000000000000000000000084521660048301525afa908115610b7d575f91613ec2575090565b613af3915060203d602011613ee4575b613edc818361394d565b810190613e22565b503d613ed2565b9190820391821161105757565b929190613f0f60209160408652604086019061398e565b930152565b73ffffffffffffffffffffffffffffffffffffffff600554168015918215613f3b57505090565b6020919250602473ffffffffffffffffffffffffffffffffffffffff9160405194859384927f8e511e4d0000000000000000000000000000000000000000000000000000000084521660048301525afa908115610b7d575f91613ec2575090565b60405160208101907f47e79534a245952e8b16893a336b85a3d9ea9fa8c573f3d803afb92a79469218825246604082015230606082015260608152613fe260808261394d565b51902090565b9190604083820312610b8857825167ffffffffffffffff8111610b885783019080601f83011215610b885781519167ffffffffffffffff831161132a578260051b906040519361403b602084018661394d565b8452602080850192820101928311610b8857602001905b8282106140655750505060209092015190565b8151815260209182019101614052565b80518210156140895760209160051b010190565b7f4e487b71000000000000000000000000000000000000000000000000000000005f52603260045260245ffd5b939291606085019185526060602086015280518092526020608086019101915f5b8181106140e957505060409150930152565b83518352602093840193909201916001016140d7565b613d5a9061411961410e614187565b919490600854613d34565b9060018301809311611057576001820180921161105757613af39261413d91614174565b8115614147570490565b7f4e487b71000000000000000000000000000000000000000000000000000000005f52601260045260245ffd5b8181029291811591840414171561105757565b600c546141978160c01c42613eeb565b9182156143b15761422077ffffffffffffffffffffffffffffffffffffffffffffffff73ffffffffffffffffffffffffffffffffffffffff600d5416931692604051907f4381cd640000000000000000000000000000000000000000000000000000000060208301528460248301528560448301526044825261421b60648361394d565b61499f565b6416262714cf8302908382046416262714cf1484151715611057578491670de0b6b3a7640000900481116143a3576142629161425b91614174565b8093613d34565b5f935f938015158061438a575b80614376575b61431c575b50601854906bffffffffffffffffffffffff8216918215159081614309575b506142a6575b5050929190565b829450906142c06142c592670de0b6b3a764000094614174565b614174565b046008546001810180911161105757846142de91613d34565b906001840180851161105757614301926142fb8361413d93613eeb565b92614174565b915f8061429f565b614316915060601c6143d4565b5f614299565b670de0b6b3a7640000919550614343906bffffffffffffffffffffffff6017541690614174565b04600854906001820180921161105757600183018084116110575761436f926142fb8361413d93613eeb565b935f61427a565b5061438560175460601c6143d4565b614275565b506bffffffffffffffffffffffff60175416151561426f565b5061425b614262915f614174565b915077ffffffffffffffffffffffffffffffffffffffffffffffff16905f905f90565b73ffffffffffffffffffffffffffffffffffffffff6004541680159182156143fb57505090565b6020919250602473ffffffffffffffffffffffffffffffffffffffff9160405194859384927f98c9b49c0000000000000000000000000000000000000000000000000000000084521660048301525afa908115610b7d575f91613ec2575090565b614464614187565b917fffffffffffffffff00000000000000000000000000000000000000000000000077ffffffffffffffffffffffffffffffffffffffffffffffff6144e9600c54937f4dec04e750ca11537cabcd8a9eab06494de08da3735bc8871cd41250e190bc0460806040518588168152836020820152886040820152896060820152a1614715565b16911617600c558061455d575b5080614548575b50600c5477ffffffffffffffffffffffffffffffffffffffffffffffff7fffffffffffffffff0000000000000000000000000000000000000000000000004260c01b16911617600c55565b6145579060185460601c614c0e565b5f6144fd565b61456c9060175460601c614c0e565b5f6144f6565b3d1561459c573d9061458382613a68565b91614591604051938461394d565b82523d5f602084013e565b606090565b613d5a6145af613d4f614187565b9060018101809111611057576001820180921161105757613af3926146d2565b73ffffffffffffffffffffffffffffffffffffffff6004541680159182156145f657505090565b6020919250602473ffffffffffffffffffffffffffffffffffffffff9160405194859384927f20fe8d580000000000000000000000000000000000000000000000000000000084521660048301525afa908115610b7d575f91613ec2575090565b818110614662575050565b5f8155600101614657565b939291613f0f9073ffffffffffffffffffffffffffffffffffffffff60409316865260606020870152606086019061398e565b613d5a6146ae613d4f614187565b9160018301809311611057576001820180921161105757613af39261413d91614174565b906146dc91614174565b907fffffffffffffffffffffffffffffffffffffffffffffffffffffffffffffffff81019181831161105757613af39261413d91613d34565b77ffffffffffffffffffffffffffffffffffffffffffffffff81116147515777ffffffffffffffffffffffffffffffffffffffffffffffff1690565b7fe58d4718000000000000000000000000000000000000000000000000000000005f5260045ffd5b90813b1561487b575f809493819473ffffffffffffffffffffffffffffffffffffffff604051928160208501967f23b872dd0000000000000000000000000000000000000000000000000000000088521660248501521660448301526064820152606481526147e960848261394d565b51925af16147f5614572565b9015614853578051908115918215614839575b50501561481157565b7f1eded19c000000000000000000000000000000000000000000000000000000005f5260045ffd5b61484c9250602080918301019101613e22565b5f80614808565b7fe65b7a77000000000000000000000000000000000000000000000000000000005f5260045ffd5b7ff046a714000000000000000000000000000000000000000000000000000000005f5260045ffd5b919091803b1561487b575f928380936040519073ffffffffffffffffffffffffffffffffffffffff60208301947fa9059cbb00000000000000000000000000000000000000000000000000000000865216602483015260448201526044815261490d60648261394d565b51925af1614919614572565b901561497757805190811591821561495d575b50501561493557565b7f2f0470fc000000000000000000000000000000000000000000000000000000005f5260045ffd5b6149709250602080918301019101613e22565b5f8061492c565b7face2a47e000000000000000000000000000000000000000000000000000000005f5260045ffd5b6020906040519283916149b2848461394d565b833684378382519201905afa156149c7575190565b505f90565b9160ff5f5c16614be6576149df816143d4565b15611c81576149ed336145cf565b15614bbe57614a1e8330337f0000000000000000000000000000000000000000000000000000000000000000614779565b614a288282614c0e565b614a3183614715565b77ffffffffffffffffffffffffffffffffffffffffffffffff600c54911677ffffffffffffffffffffffffffffffffffffffffffffffff82160177ffffffffffffffffffffffffffffffffffffffffffffffff81116110575777ffffffffffffffffffffffffffffffffffffffffffffffff7fffffffffffffffff0000000000000000000000000000000000000000000000009116911617600c5573ffffffffffffffffffffffffffffffffffffffff601354169182614b38575b73ffffffffffffffffffffffffffffffffffffffff9250604051938452602084015216907fdcbc1c05240f31ff3ad067ef1ee35ce4997762752e3a095284754544f4c709d760403392a3565b303b15610b885773ffffffffffffffffffffffffffffffffffffffff92604051907f5c9ce04d0000000000000000000000000000000000000000000000000000000082526004820152606060248201525f8180614b9760648201613b28565b886044830152038183305af1614bae575b50614aec565b5f614bb89161394d565b5f614ba8565b7f6af2a239000000000000000000000000000000000000000000000000000000005f5260045ffd5b7f3ae58fe4000000000000000000000000000000000000000000000000000000005f5260045ffd5b73ffffffffffffffffffffffffffffffffffffffff16908115611cd1577fddf252ad1be2c89b69c2b068fc378daa952ba7f163c4a11628f55a4df523b3ef60205f928484526009825260408420614c66828254613d34565b9055614c7481600854613d34565b600855604051908152a3565b9190614c8b84613f14565b15611ca957614c9982613e3a565b15615094577f0000000000000000000000000000000000000000000000000000000000000000604051947f70a082310000000000000000000000000000000000000000000000000000000086525f9530600482015260208160248173ffffffffffffffffffffffffffffffffffffffff87165afa908115610b7d575f91615062575b5080861180615041575b614f92575b5073ffffffffffffffffffffffffffffffffffffffff1694853303614ef8575b8515614ed057858152600960205260408120614d67848254613eeb565b9055614d7583600854613eeb565b60085580867fddf252ad1be2c89b69c2b068fc378daa952ba7f163c4a11628f55a4df523b3ef6020604051878152a3614dad85614715565b9077ffffffffffffffffffffffffffffffffffffffffffffffff600c54921677ffffffffffffffffffffffffffffffffffffffffffffffff8316039077ffffffffffffffffffffffffffffffffffffffffffffffff8211614ea357508473ffffffffffffffffffffffffffffffffffffffff959493614e6e937fffffffffffffffff00000000000000000000000000000000000000000000000077ffffffffffffffffffffffffffffffffffffffffffffffff8a9516911617600c556148a3565b604051938452602084015216907ffbde797d201c681b91056529119e0b02407c7bb96a4a2c75c01fc9667232c8db60403392a4565b807f4e487b7100000000000000000000000000000000000000000000000000000000602492526011600452fd5b807fd92e233d0000000000000000000000000000000000000000000000000000000060049252fd5b858152600a6020526040812073ffffffffffffffffffffffffffffffffffffffff33165f5260205260405f2054837fffffffffffffffffffffffffffffffffffffffffffffffffffffffffffffffff8203614f55575b5050614d4a565b614f5e91613eeb565b868252600a6020526040822073ffffffffffffffffffffffffffffffffffffffff33165f5260205260405f20555f83614f4e565b614fb573ffffffffffffffffffffffffffffffffffffffff601354169187613eeb565b90303b15610b88575f90604051809381927f4b219d1600000000000000000000000000000000000000000000000000000000835260048301526060602483015261500160648301613b28565b906044830152038183305af18015610b7d5715614d2a576150259196505f9061394d565b5f9473ffffffffffffffffffffffffffffffffffffffff614d2a565b5073ffffffffffffffffffffffffffffffffffffffff601354161515614d25565b90506020813d60201161508c575b8161507d6020938361394d565b81010312610b8857515f614d1b565b3d9150615070565b7f345f0855000000000000000000000000000000000000000000000000000000005f5260045ffdfea164736f6c634300081c000a","linkReferences":{}},"methodIdentifiers":{"DOMAIN_SEPARATOR()":"3644e515","abdicateSubmit(bytes4)":"4520a18c","absoluteCap(bytes32)":"bc0dd374","accrueInterest()":"a6afed95","accrueInterestView()":"60a38ac1","allocate(address,bytes,uint256)":"5c9ce04d","allocation(bytes32)":"c69507dd","allowance(address,address)":"dd62ed3e","approve(address,uint256)":"095ea7b3","asset()":"38d52e0f","balanceOf(address)":"70a08231","canReceive(address)":"90d370ba","canReceiveUnderlyingAssets(address)":"14b7165d","canSend(address)":"2bc06a92","canSendUnderlyingAssets(address)":"b48a72e9","curator()":"e66f53b7","deallocate(address,bytes,uint256)":"4b219d16","decreaseAbsoluteCap(bytes,uint256)":"8c54519b","decreaseRelativeCap(bytes,uint256)":"57975270","decreaseTimelock(bytes4,uint256)":"5c1a1a4f","deposit(uint256,address)":"6e553f65","enterBlocked()":"54adb2f1","enterGate()":"c8ad2499","executableAt(bytes)":"8639fb07","exitGate()":"7514ddfd","forceDeallocate(address,bytes,uint256,address)":"e4d38cd8","forceDeallocatePenalty(address)":"99e99183","increaseAbsoluteCap(bytes,uint256)":"f6f98fd5","increaseRelativeCap(bytes,uint256)":"2438525b","increaseTimelock(bytes4,uint256)":"47966291","isAdapter(address)":"68c18beb","isAllocator(address)":"4dedf20e","isSentinel(address)":"ba03a75f","lastUpdate()":"c0463711","liquidityAdapter()":"ad468d11","liquidityData()":"2e029228","managementFee()":"a6f7f5d6","managementFeeRecipient()":"6d9a3010","mint(uint256,address)":"94bf804d","multicall(bytes[])":"ac9650d8","name()":"06fdde03","nonces(address)":"7ecebe00","owner()":"8da5cb5b","performanceFee()":"87788782","performanceFeeRecipient()":"ed27f7c9","permit(address,address,uint256,uint256,uint8,bytes32,bytes32)":"d505accf","previewDeposit(uint256)":"ef8b30f7","previewMint(uint256)":"b3d7f6b9","previewRedeem(uint256)":"4cdad506","previewWithdraw(uint256)":"0a28a477","redeem(uint256,address,address)":"ba087652","relativeCap(bytes32)":"a68bafa3","revoke(bytes)":"0b467b9b","setCurator(address)":"e90956cf","setEnterGate(address)":"db1398c3","setExitGate(address)":"51d4947d","setForceDeallocatePenalty(address,uint256)":"3e9d2ac7","setIsAdapter(address,bool)":"b332ebf2","setIsAllocator(address,bool)":"b192a84a","setIsSentinel(address,bool)":"920ed706","setLiquidityAdapter(address)":"f8bfe0ff","setLiquidityData(bytes)":"c07337ee","setManagementFee(uint256)":"fe56e232","setManagementFeeRecipient(address)":"9faae464","setName(string)":"c47f0027","setOwner(address)":"13af4035","setPerformanceFee(uint256)":"70897b23","setPerformanceFeeRecipient(address)":"6a5f1aa2","setSymbol(string)":"b84c8246","setVic(address)":"d5f80600","submit(bytes)":"ef7fa71b","symbol()":"95d89b41","timelock(bytes4)":"e78ab14e","totalAssets()":"01e1d114","totalSupply()":"18160ddd","transfer(address,uint256)":"a9059cbb","transferFrom(address,address,uint256)":"23b872dd","vic()":"1a2c69ea","withdraw(uint256,address,address)":"b460af94"},"id":26}